:100000000C9465000C948D000C948D000C948D0064
:100010000C948D000C948D000C948D000C948D002C
:100020000C948D000C948D000C948D000C948D001C
:100030000C948D000C948D000C948D000C948D000C
:100040000C943A160C948D000C94F3180C9425190A
:100050000C948D000C948D000C948D000C948D00EC
:100060000C948D000C948D0000000008000201002B
:100070000003040700000000000000000102040863
:100080001020408001020408102001020408102002
:10009000040404040404040402020202020203032E
:1000A0000303030300000000250028002B000000CC
:1000B0000000240027002A002101780116073D0BCB
:1000C0001E0D290D890F5519031A11241FBECFEFDC
:1000D000D8E0DEBFCDBF12E0A0E0B1E0E8E2F8E397
:1000E00002C005900D92A830B107D9F723E0A8E02F
:1000F000B2E001C01D92A737B207E1F710E0CAECE9
:10010000D0E004C02297FE010E94861BC83BD107A5
:10011000C9F70E94131A0C94121C0C940000EF9261
:10012000FF920F931F93CF93DF9300D000D000D0A6
:10013000CDB7DEB762E171E084ED92E00E94601A13
:100140008E010D5F1F4F7E0187E0E80EF11C65E810
:1001500072E0CE0101960E94150BF80161918F01AA
:100160004AE050E084ED92E00E94E51A62E271E01C
:1001700084ED92E00E94601A0E151F0541F784ED90
:1001800092E00E94691A26960FB6F894DEBF0FBE61
:10019000CDBFDF91CF911F910F91FF90EF90089508
:1001A000EF92FF920F931F9326E040E855E260E044
:1001B00070E084ED92E00E94911810EAE12E1FE0B9
:1001C000F12E00E010E020E63AEE40E050E064E07E
:1001D00071E085E892E00E94080A892B39F464E214
:1001E00071E084ED92E00E946D1AFFCF1F910F9194
:1001F000FF90EF900C948F0085E892E00E94B10A86
:100200008230910569F01CF4019739F0089583302C
:10021000910549F0049769F008956CE471E005C018
:1002200060E671E008C060E771E084ED92E00C9454
:100230006D1A63E871E084ED92E00E946D1A0C94EF
:100240008F000F9300E020E040E060E085E192E065
:100250000E94DC1988E092E00F910C94490C0E96F4
:1002600024E1FC0111922A95E9F70895CF93DF93D9
:10027000EC01625F7F4F0E94E819CE01DF91CF91C0
:100280000895CF93DF93EC016E5E7F4F0E94E819D3
:10029000CE01DF91CF910895CF93DF93EC016A5E99
:1002A0007F4F0E94E819CE01DF91CF910895CF933F
:1002B000DF93EC01625E7F4F0E94E819CE01DF916F
:1002C000CF91089580E3FB0180833296842F82953D
:1002D0008F7090E1899F401911244A3014F4405DD9
:1002E00001C0495C4293882311F0482FEFCF089555
:1002F0000F9300E020E040E060E08BE192E00E949C
:10030000DC190F9108956F927F928F929F92AF9216
:10031000BF92CF92DF92EF92FF920F931F93CF93F2
:10032000DF93CDB7DEB7AC970FB6F894DEBF0FBE44
:10033000CDBF7C01862EB42EA52E20E2922ECE01BA
:1003400001966C01FC01292D11922A95E9F70FEF16
:100350002FEF4FEF6FEF86960E94DC1987EF91E049
:100360009AA389A389A59AA5ABA5BCA58BA39CA399
:10037000ADA3BEA387010D5B1F4F43E450E0BE0158
:100380006F5D7F4FC8010E947F0D019609F4BFC0C9
:1003900081E089838A8386E0782E7B821C82F70144
:1003A00064817581868197810E94721B6D837E8333
:1003B0008F839887A986BA8680E890E09C878B8790
:1003C0004CE150E0B601C8010E948B0DF601292DC9
:1003D00011922A95E9F7570188E0A80EB11CF501A2
:1003E000D60101900D927A94E1F740E150E0B60118
:1003F000C8010E948B0DF60111929A94E9F796E0DC
:10040000692E712C40E250E0B601C8010E948B0DAC
:10041000F1E06F1A7108B1F783E6898392E89A8355
:1004200093E59B838C8385E38D8381E08E838F822C
:100430009DE3988797E099878A8786E0F501DE013A
:100440001B9601900D928A95E1F78CE0898B8A8B3F
:1004500062E971E0CE0143960E94031CF7014385D7
:10046000BE01675E7F4FC7010E946201F7014485AC
:10047000BE01655E7F4FC7010E946201F70145859D
:10048000BE01635E7F4FC7010E9462014EE150E0F2
:10049000B601C8010E948B0DF3E08F121EC082E3EB
:1004A000898384E08A83F70196859B8397859C8363
:1004B00090899D8391899E8396E39F838887828D0F
:1004C0008987838D8A87848D8B87858D8C874CE087
:1004D00050E0B601C8010E948B0D87E3898386E056
:1004E0008A8391E09B8393E09C838D838FE08E834E
:1004F0008AE38F838BE388878FEF898749E050E019
:10050000B601C8010E948B0DC8010E94870DAC96F0
:100510000FB6F894DEBF0FBECDBFDF91CF911F9114
:100520000F91FF90EF90DF90CF90BF90AF909F9092
:100530008F907F906F9008952F923F924F925F928D
:100540006F927F928F929F92AF92BF92CF92DF92E3
:10055000EF92FF920F931F93CF93DF93CDB7DEB748
:10056000E3970FB6F894DEBF0FBECDBF7C012A0122
:100570003B0169010E9484164B015C0187010D5B00
:100580001F4FC8010E942B0E1816190694F00E94E6
:100590008416681979098A099B0946165706680660
:1005A0007906F0F062E370E080E090E00E94B3161C
:1005B000E8CF42E250E0BE016F5F7F4FC8010E946A
:1005C000C80D8981823031F4F8018489958983349A
:1005D000910541F019A6C8010E94690D89A566C15F
:1005E0008FEF64C16D817E818F8198850E94721B1F
:1005F0004B015C01F601608371838283938346E043
:1006000050E0B701685F7F4FCE014D960E94F61B08
:10061000892B99F4F70180819181A281B381881699
:100620009906AA06BB0648F084819581A681B78108
:1006300088159905AA05BB0528F4C8010E94690D13
:1006400080E034C189899A89AB89BC89F7018687A2
:100650009787A08BB18B3EECC32ED12CC8010E9492
:100660009F0DF1E0CF1AD108C9F719A6C7018296EC
:100670009BA78AA7F701B696FDA7ECA708969FA7A8
:100680008EA73C976F01899699AB88AB3897FBABE7
:10069000EAAB5701F6E1AF0EB11C47018EE1880EBF
:1006A000911CC8010E944F0D181619060CF093CF2B
:1006B000C8010E949F0D8333910509F4CDC0F4F465
:1006C00081309105B9F11CF4892B59F3DFC08330D7
:1006D0009105C1F1069709F0D9C0C8010E949F0D8C
:1006E0003C0144E050E0B401C8010E94C80D212C37
:1006F000312C7724F4E06F1A71083FC08A339105DA
:1007000009F47EC03CF48533910561F0C69709F485
:100710003FC0BCC08B33910509F488C08F3F910561
:1007200001F2B4C0C8010E949F0DC8010E949F0D34
:1007300089A7B7CFC8010E949F0D44E050E06AA985
:100740007BA93AC0C8010E949F0D3C0144E050E0E3
:10075000B501C8010E94C80D212C312C772494E0EA
:10076000691A7108261437040CF09BCFC8010E9447
:100770009F0DEFEF2E1A3E0AF5CF261437040CF02A
:1007800090CFC8010E949F0D8FEF281A380AF5CF2D
:10079000C8010E949F0D782EF701828D811110C033
:1007A000838D81110DC0848D81110AC0858D8111C9
:1007B00007C044E050E0B601C8010E94C80D71CFE7
:1007C000E8A9F9A92080318042805380B601CE018A
:1007D00083960E94E8198DA19EA1AFA1B8A58215AC
:1007E0009305A405B50529F3212C312C721409F4C5
:1007F00058CFC8010E949F0DFFEF2F1A3F0AF6CF76
:10080000C8010E949F0D44E050E06CA57DA5C80181
:100810000E94C80DF70166A177A180A591A50E944D
:10082000721B66A377A380A791A73BCFC8010E9444
:100830009F0D44E050E06EA57FA5C8010E94C80D41
:10084000F70162A573A584A595A50E94721B62A7F6
:1008500073A784A795A725CFC8010E949F0D44E0E8
:1008600050E06AA57BA5C8010E94C80DF70162A1EE
:1008700073A184A195A10E94721B62A373A384A398
:1008800095A366A777A780AB91AB0BCFC8010E9459
:100890009F0D382E612C712C361409F402CFC8013B
:1008A0000E949F0DFFEF6F1A7F0AF6CFE3960FB6F7
:1008B000F894DEBF0FBECDBFDF91CF911F910F9196
:1008C000FF90EF90DF90CF90BF90AF909F908F9070
:1008D0007F906F905F904F903F902F9008952F9250
:1008E0003F924F925F926F927F928F929F92AF92C0
:1008F000BF92CF92DF92EF92FF920F931F93CF930D
:10090000DF9300D000D01F92CDB7DEB78C0120ED71
:1009100037E040E050E061E070E080E090E00E946D
:10092000101BD80114966D937D938D939C9317970C
:10093000F80160837183828393834801F3E48F0E0F
:10094000911CC4010E946A0D64E470E0C4010E941D
:10095000FE0D882309F434C10E9484166B017C01CA
:10096000212C312C1D82580182E4A80EB11C48EEC6
:10097000442E43E0542E612C712CF501808183308C
:1009800009F405C181111FC0F80184819581A681F8
:10099000B7810196A11DB11D84839583A683B7837A
:1009A0000E9484166C197D098E099F09A30192018A
:1009B0000E94311BA90161E0C8010E94830181E00E
:1009C000D5018C93C6C08430F9F4F80184819581F7
:1009D000A681B7810196A11DB11D84839583A6834D
:1009E000B7830E9484166C197D098E099F09A301A3
:1009F00092010E94311BA90163E0C8010E9483019A
:100A0000E2E0D501EC93A5C0813069F5D801DA9612
:100A10004D915D916D917C91DD979E012F5F3F4FD0
:100A2000C8010E949C028D83823009F092C08981A6
:100A30009A81AB81BC81F80184839583A683B783B7
:100A40000E9484166C197D098E099F09A3019201E9
:100A50000E94311BA90163E0C8010E948301ED815E
:100A6000D501EC937CC0823009F073C0D801DA96CE
:100A70004D915D916D917C91DD979E012F5F3F4F70
:100A8000C8010E949C028D83853009F05CC083E020
:100A9000F5018083F80182A193A1A4A1B5A1892BBE
:100AA0008A2B8B2B41F484E893E0A0E0B0E082A392
:100AB00093A3A4A3B5A3F80186A197A1A0A5B1A56E
:100AC000892B8A2B8B2B61F482A193A1A4A1B5A1C0
:100AD000B695A7959795879586A397A3A0A7B1A745
:100AE000F80182A593A5A4A5B5A5892B8A2B8B2BEC
:100AF000A9F482A193A1A4A1B5A1AC01BD0123E0F9
:100B000076956795579547952A95D1F7841B950B50
:100B1000A60BB70B82A793A7A4A7B5A7F80186A138
:100B200097A1A0A5B1A586A797A7A0ABB1AB82A5B9
:100B300093A5A4A5B5A582AB93ABA4ABB5AB22247A
:100B40002394312C0CC0FD81F63019F4D5011C9290
:100B500006C0BD81BF3F19F4F50110821D82F1E08E
:100B60002F16310409F409CF0E9484166C197D09EF
:100B70008E099F09D801D6962D913D914D915C919A
:100B8000D997261737074807590708F0F6CEC4014A
:100B90000E946A0DF80184819581A681B781019632
:100BA000A11DB11D84839583A683B7830E948416FB
:100BB000F801FE966083718382839383C10102C032
:100BC00080E090E00F900F900F900F900F90DF91CA
:100BD000CF911F910F91FF90EF90DF90CF90BF903A
:100BE000AF909F908F907F906F905F904F903F90CD
:100BF0002F900895CF92DF92EF92FF920F931F9361
:100C0000CF93DF93EC016B011AA21BA21CA21DA2C1
:100C10001EA21FA218A619A61AA61BA61CA61DA6D0
:100C20002EAB3FAB48AF59AFEAAEFBAE0CAF1DAF3A
:100C30008C01085F1F4F86E0F80111928A95E9F751
:100C4000CE010E942F0186E0F601D80101900D929D
:100C50008A95E1F7FE01EE5BFF4F1082CE01DF9136
:100C6000CF911F910F91FF90EF90DF90CF900C9458
:100C70006F04CF92DF92EF92FF920F931F93CF9367
:100C8000DF93EC010E9484166B017C018E01025CF3
:100C90001F4FF80180819181A281B381A701960144
:100CA000281B390B4A0B5B0BCA01B901683E33E0C4
:100CB00073078105910508F441C028EE33E040E058
:100CC00050E00E94311BC61AD70AE80AF90AF80157
:100CD000C082D182E282F3828EA59FA5A8A9B9A97C
:100CE00069017A01CC0CDD1CEE1CFF1C8C159D05E6
:100CF000AE05BF0528F41EA61FA618AA19AA08C08B
:100D0000821B930BA40BB50B8EA79FA7A8ABB9AB07
:100D10008AA99BA9ACA9BDA98C159D05AE05BF05E7
:100D200028F41AAA1BAA1CAA1DAA08C0821B930B8E
:100D3000A40BB50B8AAB9BABACABBDAB8EA59FA593
:100D4000A8A9B9A9892B8A2B8B2B69F4FE01EE5B2C
:100D5000FF4F8081833039F484E08083CE010E948C
:100D60006F04019602C080E090E04AA95BA96CA9DB
:100D70007DA9452B462B472B81F4FE01EE5BFF4FEF
:100D80002081233011F0211108C01082CE010E9471
:100D90002F01CE010E946F040396DF91CF911F9126
:100DA0000F91FF90EF90DF90CF900895FB0142816B
:100DB000538164817581FC0142835383648375830D
:100DC000178216820895FB0120E080E090E06AE03F
:100DD0003191332309F170ED730F7A3080F4DC0127
:100DE0006A9FC0016B9F900D1124C097830F911DC6
:100DF00037FD9A958F3F910559F350F314C03E3259
:100E000091F4233081F0DA01A20FB11D12968C9378
:100E10002F5F80E090E0DCCF233029F4FA01858356
:100E200081E090E0089580E090E008950F9300E065
:100E300020E040E060E081E292E00E94DC190F9146
:100E40000895AF92BF92CF92DF92EF92FF920F93ED
:100E50001F93CF93DF9300D000D01F92CDB7DEB7A2
:100E60008C017B010E948416F801778366837627C4
:100E7000672776277A836983085F1F4F42E050E037
:100E8000BE016F5F7F4FC8010E948B0D81E090E033
:100E90009C838B8342E050E0BE016D5F7F4FC801B1
:100EA0000E948B0D80E091E09C838B8342E050E0B8
:100EB000BE016D5F7F4FC8010E948B0D1C821B829B
:100EC00042E050E0BE016D5F7F4FC8010E948B0D74
:100ED00042E050E0BE016D5F7F4FC8010E948B0D64
:100EE00042E050E0BE016D5F7F4FC8010E948B0D54
:100EF0006701F6018081882311F1F7016F0181916B
:100F0000811115C05601AE18BF081A141B0494F4C1
:100F1000AD8241E050E0BE016B5F7F4FC8010E948F
:100F20008B0DA501B701C8010E948B0D03C08E3245
:100F300029F7E8CF7601FFEFEF1AFF0ADACF1D821B
:100F400041E050E0BE016B5F7F4FC8010E948B0DF6
:100F5000E12CFF24F394FC82EB8242E050E0BE01DE
:100F60006D5F7F4FC8010E948B0DFC82EB8242E0D7
:100F700050E0BE016D5F7F4FC8010E948B0D81E084
:100F800090E00F900F900F900F900F90DF91CF9106
:100F90001F910F91FF90EF90DF90CF90BF90AF9097
:100FA00008954F925F926F927F928F929F92AF922D
:100FB000BF92CF92DF92EF92FF920F931F93CF9346
:100FC000DF93CDB7DEB763970FB6F894DEBF0FBEE1
:100FD000CDBF7C015B016A010E9484162B013C019C
:100FE0008701085F1F4F4501A12CB12CC8010E9449
:100FF0002B0E1816190694F00E94841664197509B0
:101000008609970986169706A806B906D0F062E306
:1010100070E080E090E00E94B316E8CFF7014281D3
:10102000538164817581808D918DA28DB38D481718
:1010300059076A077B0741F4848D958DC59721F484
:1010400006C08FEF9FEFFAC08EEF9FEFF7C0C80189
:101050000E944F0D0C97ECF04CE050E0BE016F5F2A
:101060007F4FC8010E94C80D6C818B810E942C1B90
:101070009A8B898BF701E680F7806A8189810E94CB
:101080002C1BE816F90641F489899A8997FF04C058
:1010900009C08DEF9FEFD2C0C8010E94690D8CEF8F
:1010A0009FEFCCC08F709270892B31F0C8010E94E5
:1010B000690D8BEF9FEFC2C068858F810E942C1B4A
:1010C0005C01009719F0E12CF12C23C0C8010E94AB
:1010D000690D8AEF9FEFB2C041E050E0BE01635F4F
:1010E0007F4FC8010E94C80D8D8581111AC08D8562
:1010F0008111F2CFC8010E949F0DC8010E949F0D6F
:10110000C8010E949F0DC8010E949F0DFFEFEF1ABA
:10111000FF0A6E818D810E942C1BE816F906E0F211
:101120000AC08D859FEF980F9D87882301F3C80122
:101130000E949F0DF6CFE12CF12C41E050E0BE0162
:101140006D5E7F4FC8010E94C80D8B89982F907CDF
:1011500061F4882371F08B899FEF980F9B8B882314
:1011600041F0C8010E949F0DF6CFC8010E949F0D5B
:101170001B8A8B898111E1CF42E050E0BE01615FA3
:101180007F4FC8010E94C80D42E050E0BE01635F7E
:101190007F4FC8010E94C80DC8010E949F0DC80161
:1011A0000E949F0DC8010E949F0DC8010E949F0DC3
:1011B00042E050E0BE016F5E7F4FC8010E94C80D43
:1011C0008F8598898115914029F48D859E8581159B
:1011D000914019F0812C912C16C089899A8981152A
:1011E000944031F0C8010E94690D87EF9FEF26C03F
:1011F000B6016E5F7F4F44E050E0C8010E94C80D09
:1012000081E090E01BC089899A89982789279827CF
:101210008816990638F4C8010E949F0D2FEF821A94
:10122000920AF1CF8FEFE81AF80AEA14FB0409F0EA
:1012300084CFC8010E94690D86EF9FEF63960FB6B9
:10124000F894DEBF0FBECDBFDF91CF911F910F91FC
:10125000FF90EF90DF90CF90BF90AF909F908F90D6
:101260007F906F905F904F9008958F929F92AF9272
:10127000BF92CF92DF92EF92FF920F931F93CF9383
:10128000DF9300D000D000D0CDB7DEB78C015B017A
:101290006A010E94E3064C01009709F05DC0F80165
:1012A000428153816481758180912302909124024F
:1012B000A0912502B0912602481759076A077B07BB
:1012C00009F44EC00E9484167801F8E0EF0EF11C7C
:1012D0006F7077277C5FC7010E94FE0D813009F097
:1012E00043C087EF91E09A838983F80182819381DB
:1012F000A481B5818B839C83AD83BE8345E350E09D
:10130000BE016F5F7F4FC7010E947F0D892B19F4CB
:10131000812C912C1DC0B501C8010E942107892B89
:10132000B9F3C7010E94870D892B91F333E0A32EF7
:10133000B12CA60168E873E1C8010E94D1074C01F5
:10134000F1E0AF1AB10821F08F3F2FEF920789F338
:10135000C7010E946A0D08C088248394912C04C0A0
:101360009EEF892E99249A94C40126960FB6F8947C
:10137000DEBF0FBECDBFDF91CF911F910F91FF90C8
:10138000EF90DF90CF90BF90AF909F908F90089597
:101390002091C902222399F03FB7F8942091C90205
:1013A000213059F42DB32093C7024DB32091C802C8
:1013B000209524232DBB3FBF02C03093C7028CBDB4
:1013C0009DBD08958091C902882361F09FB7F8946C
:1013D0002091C9028091C702213019F48DBB9FBFB3
:1013E00008958FBF089544E050E0BC0181E090E093
:1013F0000C94FA1344E050E0BC0185E090E00C94BA
:10140000FA1344E050E0BC018FE090E00C94FA1332
:101410002F923F924F925F926F927F928F929F9204
:10142000AF92BF92CF92DF92EF92FF920F931F93F2
:10143000CF93DF9300D000D000D0CDB7DEB76C01E2
:101440001B0129013A014701580180918D02811148
:1014500007C08AE692E00E94110F81E080938D021E
:1014600087E292E0F6019783868387EB92E00E9401
:10147000921380E590E00E94C80946E050E0B10177
:1014800089E090E00E94FA1300E020E040E060E094
:10149000CE0101960E94DC19CE0103960E94010A3A
:1014A0000E94E20985017401A3019201B101F601D4
:1014B000868197810E94FA055C0181309105B9F51A
:1014C00080E590E00E94C809F60166817781CE012F
:1014D00001960E943601CE0103960E94010AF60190
:1014E00066817781CE0101960E944C01CE01039660
:1014F0000E94F309F60166817781CE0101960E9470
:101500004101CE0103960E94FA090E94E209F60108
:1015100066817781CE0101960E9457014B815C81E3
:101520006D817E81F6014283538364837583C50197
:1015300026960FB6F894DEBF0FBECDBFDF91CF91D8
:101540001F910F91FF90EF90DF90CF90BF90AF90E1
:101550009F908F907F906F905F904F903F902F90D3
:101560000895EF92FF920F931F93CF93DF9300D0D4
:1015700000D000D0CDB7DEB78C01FC018681978109
:10158000009709F442C00E9439067C01823091051F
:1015900021F084E0E816F104D1F580E590E00E94A6
:1015A000C809F80166817781CE0101960E94360153
:1015B000CE0103960E94010AF80166817781CE016F
:1015C00001960E944C01CE0103960E94F309F80196
:1015D00066817781CE0101960E944101CE0103967A
:1015E0000E94FA090E94E209F80166817781CE0122
:1015F00001960E9457014B815C816D817E81F801CB
:10160000428353836483758302C0E12CF12CC701AC
:1016100026960FB6F894DEBF0FBECDBFDF91CF91F7
:101620001F910F91FF90EF900895CF93DF93EC01FE
:101630000E94D21980E590E00E94C809BE016E5F49
:101640007F4F44E050E08FE090E00E942B150E9415
:10165000E209CE01DF91CF91089527EF31E0FC013F
:1016600031832083FB014281538164817581FC01B8
:10167000428353836483758308950F9300E020E0D1
:1016800040E060E08DE992E00E94DC1985E892E09C
:101690000F910C94D21981E086270895862F089522
:1016A000DC01ED91FC91048CF58DE02D099591E024
:1016B00089270895CF93DF931F92CDB7DEB7698353
:1016C000DC01ED91FC910280F381E02D41E050E0DE
:1016D000BE016F5F7F4F09950F90DF91CF91089505
:1016E00021E0FC018485843009F420E0822F0895F4
:1016F000FC019485FB018485981303C081E094303C
:1017000009F480E008950F931F93CF93DF93EC01CA
:101710008A018C85843021F00E943411892B39F4A0
:1017200081E090E09B838A8380E090E001C0C80163
:10173000DF91CF911F910F910895FC018485843032
:1017400011F00C942B1280E090E00895CF93DF937A
:101750001F92CDB7DEB741E050E0BE016F5F7F4F13
:10176000FC0184850E94CB11181619061CF489818E
:1017700090E002C08FEF9FEF0F90DF91CF9108951F
:10178000FC0184850C94CB110F931F93CF93DF93AF
:101790001F92CDB7DEB78C01DC01ED91FC91048086
:1017A000F581E02D0995892B51F0BE016F5F7F4FC8
:1017B000F80184850E945612898190E002C08FEF63
:1017C0009FEF0F90DF91CF911F910F910895FC0132
:1017D00084850C948512CF92DF92EF92FF920F9343
:1017E0001F93CF93DF93CDB7DEB7AF970FB6F894C3
:1017F000DEBF0FBECDBF7C018B016A01CE01019619
:101800000E94D219CE0109960E94110FCE018A962C
:101810000E94D21965E872E0CE0184960E942D0BD9
:10182000BE016C5D7F4FCE0101960E94D606AE01CF
:10183000465D5F4FB801CE0101960E9435098130A7
:101840009105C1F4D701ED91FC910484F585E02D5B
:1018500087EF91E09DA38CA30CA51DA52EA53FA508
:101860000EA31FA328A739A7A601BE016C5D7F4F59
:10187000C7010995AF960FB6F894DEBF0FBECDBF76
:10188000DF91CF911F910F91FF90EF90DF90CF905C
:101890000895FC011382128248EE53E060E070E08C
:1018A00044835583668377838DE991E091838083B8
:1018B00084E084870895FC018485843011F00C94C1
:1018C000101080E00895DF92EF92FF920F931F9324
:1018D000CF93DF93EC017B018A018C85843009F082
:1018E00045C0D12C8D2D0E941010811102C0DC86C4
:1018F00007C08B7F8831D9F3D39484E0D812F2CF1C
:101900008C85843099F120910A0130910B012F5F71
:101910003F4F11F420E030EC30930B0120930A018B
:1019200040910A0150910B0120E061E00E94621099
:10193000B7016E5F7F4FA8018C850E94B6108111A0
:1019400003C084E08C8712C0CE010E945B0C8731FB
:1019500051F061E070E080E090E00E94B316CE01AB
:101960000E945B0CECCF81E090E002C080E090E050
:10197000DF91CF911F910F91FF90EF90DF9008952D
:10198000CF92DF92EF92FF92CF93DF93EC018C85A1
:10199000843049F10E940E110E9484166B017C0173
:1019A000CE010E945B0C8823A1F061E070E080E032
:1019B00090E00E94B3160E9484166C197D098E096E
:1019C0009F09683E73408105910550F38C850E9404
:1019D0003810EC85F0E0EE0FFF1FEB56FD4F118243
:1019E000108284E08C87DF91CF91FF90EF90DF90A1
:1019F000CF900895CF93DF93EC018C858430D1F0A4
:101A0000CE010E945B0C8431A9F0882399F08831C3
:101A100089F08C3169F4E881F9810480F581E02D49
:101A2000CE01099521E0892B09F420E0822F03C023
:101A300081E001C080E0DF91CF9108950F9300E035
:101A400020E040E060E083EA92E00E94DC190F9120
:101A500008950F9300E020E040E060E089EA92E022
:101A60000E94DC190F910895DC01ED91FC91008C2E
:101A7000F18DE02D099427EF31E0FC0131832083C3
:101A8000FB014089518962897389FC014283538338
:101A9000648375830895FC01848995890895FC0108
:101AA000818D928D0895CF93DF931F92CDB7DEB7CE
:101AB0006983DC01ED91FC910280F381E02D41E02E
:101AC00050E0BE016F5F7F4F09950F90DF91CF917E
:101AD00008950895CF93DF93EC01888D843061F0F1
:101AE0000E943810E88DF0E0EE0FFF1FEB56FD4F1F
:101AF0001182108284E0888FDF91CF910895FC01DC
:101B0000178A168A6E5F7F4F808D0C94CD12FC0170
:101B1000808D0C941313CF93DF93EC019A018E897F
:101B20009F89AB01BC01888D0E9486122E893F8956
:101B3000280F391F3F8B2E8BDF91CF9108950F9384
:101B40001F93CF93DF931F92CDB7DEB78C01FC01BB
:101B5000818D928D892B59F041E050E0BE016F5F7D
:101B60007F4F808D0E94CB11181619061CF08FEF45
:101B70009FEF08C0F801818D928D0197928F818F20
:101B8000898190E00F90DF91CF911F910F9108957F
:101B9000CF93DF93EC01898D9A8D009719F48FEF25
:101BA0009FEF10C04817590708F0AC01888D0E94BC
:101BB000CB11181619069CF7298D3A8D281B390B65
:101BC0003A8F298FDF91CF910895CF93DF931F92A2
:101BD000CDB7DEB7FC01218D328D232B49F0BE013C
:101BE0006F5F7F4F808D0E945612898190E002C006
:101BF0008FEF9FEF0F90DF91CF910895FF920F939A
:101C00001F93CF93DF93EC018B01888D8430E1F437
:101C1000F12C8F2D0E941010811102C0F88E06C089
:101C20008831E1F3F39484E0F812F3CF888D8430A7
:101C300059F01D870C871A8E198E20E0A80162E0EA
:101C40000E94621081E001C080E0DF91CF911F917E
:101C50000F91FF9008950F931F93CF93DF93CDB70C
:101C6000DEB728970FB6F894DEBF0FBECDBF8C014C
:101C7000F801818D928D892B49F0D801ED91FC916D
:101C80000680F781E02DC8010995F2CF808D0E9472
:101C90002B121816190644F548E050E0BE016F5F9C
:101CA0007F4FD80158968C910E94CB1118161906B7
:101CB000ECF4BE016F5F7F4FC8010E960E94F819C9
:101CC0008D8190E0982F88272E81820F911DF80139
:101CD000958B848B8F8190E0982F88272885820FA1
:101CE000911D928F818F02C080E090E028960FB600
:101CF000F894DEBF0FBECDBFDF91CF911F910F9142
:101D000008958F929F92AF92BF92CF92DF92EF92FF
:101D1000FF920F931F93CF93DF9300D000D000D09A
:101D2000CDB7DEB78C017B014A01FC01808D843088
:101D300009F063C073E0A72E74E0B72EC12CD12C3C
:101D4000C5010E942914811103C0F801C08E0AC088
:101D50008831D9F3FFEFCF1ADF0AB394E4E0CE164F
:101D6000D10471F7F801808D843009F446C096E003
:101D7000ECE0F1E0DE01119601900D929A95E1F709
:101D8000F70193819F779C8394819D8395819E83A6
:101D9000B7016E5F7F4F90E0982F882744E050E0B6
:101DA000845F9B4F0E94FA13F801808D90E00496A7
:101DB000F82EEE24692DC70140960E947013682DFD
:101DC000C70141960E947013F801808D90E0982F12
:101DD000882746E050E0BE016F5F7F4F8A5F9B4FD0
:101DE0000E94FA13F801128E118E20E8A40162E01D
:101DF000808D0E94621081E001C080E026960FB6BF
:101E0000F894DEBF0FBECDBFDF91CF911F910F9130
:101E1000FF90EF90DF90CF90BF90AF909F908F900A
:101E20000895CF93DF93EC011B821A8248EE53E0B2
:101E300060E070E04C835D836E837F8381EC91E092
:101E400099838883CE010E960E94D21984E0888FF0
:101E5000DF91CF910895CF92DF92EF92FF920F938F
:101E60001F93CF93DF93CDB7DEB7AF970FB6F8943C
:101E7000DEBF0FBECDBF7C018B016A01CE01019692
:101E80000E94D219CE0109960E94110FCE018A96A6
:101E90000E94D21965E872E0CE0184960E942D0B53
:101EA000BE016C5D7F4FCE0101960E94D606AE0149
:101EB000465D5F4FB801CE0101960E943509813021
:101EC0009105C1F4D701ED91FC910088F189E02DD5
:101ED00087EF91E09DA38CA30CA51DA52EA53FA582
:101EE0000EA31FA328A739A7A601BE016C5D7F4FD3
:101EF000C7010995AF960FB6F894DEBF0FBECDBFF0
:101F0000DF91CF911F910F91FF90EF90DF90CF90D5
:101F100008950F9300E020E040E060E08FEA92E057
:101F20000E94DC190F910895CF92DF92EF92FF92F9
:101F30000F9330E0C12CF2E1DF2EFAE7EF2EF12C07
:101F40004C155D056E057F0540F4F694E794D79433
:101F5000C7943F5F3630A1F737E041E043272111B6
:101F600002C050E701C050E5242F30E03595279599
:101F700023700C70202B252BFC01208341704183A2
:101F80000F91FF90EF90DF90CF90089590E0982F01
:101F9000882744E050E0845F9B4F0C94FA13282F6D
:101FA00030E02C5F3F4F922F8827860F971F0C94AD
:101FB000291462E070E00C94CF0FFB01282F30E071
:101FC0002C5F3F4F922F8827642F8E0F9F1F0C94FA
:101FD0007013CF93DF93C82FD62F472F64E070E0A4
:101FE0000E94DD0F4D2F65E070E08C2FDF91CF91C7
:101FF0000C94DD0F462F62E070E00C94DD0FCF9360
:10200000DF93C82FD62F472F60E170E00E94DD0FCD
:102010004D2F61E170E08C2FDF91CF910C94DD0F9B
:102020000F931F93CF93DF9300D01F92CDB7DEB7EE
:10203000182F00E021E040E059E06DE370E0CE01B0
:1020400001960E94940F89819A810E94C80963E0D9
:1020500070E0812F0E94CF0F8B830E94E2098B8159
:102060000F900F900F90DF91CF911F910F910895D6
:102070000F931F93CF93DF9300D0CDB7DEB7182F08
:1020800000E021E040E059E06DE370E0CE01019610
:102090000E94940F89819A810E94C80940E150E012
:1020A000612F87EB92E00E94F3156FEF812F0E9462
:1020B000FA0F0E94E2090F900F90DF91CF911F91CC
:1020C0000F910895CF92DF92EF92FF920F931F939B
:1020D000CF93DF9300D0CDB7DEB7182FD62E7A017D
:1020E000C22E8FEF860F8530A8F5812F0E94381001
:1020F00000E021E040E059E06DE370E0CE010196A0
:102100000E94940F89819A810E94C8094D2D4C2903
:1021100060E070E0812F0E94DD0FE114F10411F006
:10212000B7010AC06091B5027091B6026F5F7F4F30
:102130007093B6026093B502812F0E94E90F41E0CF
:1021400050E0612F87EB92E00E94F3150E94E209B4
:1021500081E001C080E00F900F90DF91CF911F913F
:102160000F91FF90EF90DF90CF900895CF92DF9284
:10217000EF92FF920F931F93CF93DF9300D0CDB7D1
:10218000DEB7182F7B016A01FB0180818F3F51F47C
:1021900081818F3F99F482818F3F81F483818F3FCA
:1021A00069F430C081110AC0FB018181811106C030
:1021B0008281811103C08381882321F1C114D1045C
:1021C00009F100E021E040E059E06DE370E0CE016C
:1021D00001960E94940F89819A810E94C809B701D3
:1021E000812F0E94C60FB601812F0E94FF0F44E08D
:1021F00050E0612F87EB92E00E94F3150E94E20904
:1022000081E001C080E00F900F90DF91CF911F918E
:102210000F91FF90EF90DF90CF9008950F931F9351
:10222000CF93DF9300D0CDB7DEB7182F00E021E0C9
:1022300040E059E06DE370E0CE0101960E94940FFA
:1022400089819A810E94C80948E050E0612F87EB9C
:1022500092E00E94F3150E94E2090F900F90DF9127
:10226000CF911F910F910895BF92CF92DF92EF927D
:10227000FF920F931F93CF93DF9300D01F92CDB7A0
:10228000DEB7B82E6B017A01413088E0580718F0AC
:10229000E12C98E0F92E00E021E040E059E06DE308
:1022A00070E0CE0101960E94940F89819A810E946C
:1022B000C8096B2D87EB92E00E9461148C0163E0EA
:1022C00070E08B2D0E94CF0F8B830E94E2098B81DF
:1022D000873111F08C3131F40E9439160E151F052B
:1022E000D0F202C0E12CF12C00E021E040E059E006
:1022F0006DE370E0CE0101960E94940F89819A816E
:102300000E94C8099701A6016B2D87EB92E00E94FD
:10231000201540E250E06B2D87EB92E00E94F31510
:102320008B2D0E94D90F84FD22C063E070E08B2DBD
:102330000E94CF0F811108C00E94E2098B2D0E94DC
:10234000381080E090E01AC00E94E2090E9439161D
:1023500000E021E040E059E06DE370E0CE0101963D
:102360000E94940F89819A810E94C809D9CF60E1A7
:102370008B2D0E94FA0F0E94E209C7010F900F9067
:102380000F90DF91CF911F910F91FF90EF90DF9011
:10239000CF90BF900895AF92BF92CF92DF92EF920D
:1023A000FF920F931F93CF93DF9300D0CDB7DEB78B
:1023B000182F5B016A0100E021E040E059E06DE385
:1023C00070E0CE0101960E94940F89819A810E944B
:1023D000C809612F87EB92E00E9495147C01009759
:1023E000A1F463E070E0812F0E94CF0F843119F1D6
:1023F000882309F121E030E08C3111F420E030E055
:10240000EE24FF24E21AF30A16C0C816D9060CF40B
:1024100076011E141F047CF400E09701A501612FD2
:1024200087EB92E00E94A31540E450E0612F87EB18
:1024300092E00E94F3150E94E209C7010F900F90ED
:10244000DF91CF911F910F91FF90EF90DF90CF9090
:10245000BF90AF9008950F931F93CF93DF9300D059
:1024600000D0CDB7DEB7182F00E021E040E059E002
:102470006DE370E0CE0101960E94940F89819A81EC
:102480000E94C809612F87EB92E00E9495148B830C
:102490009C830E94E2098B819C810F900F900F908A
:1024A0000F90DF91CF911F910F910895EF92FF92BE
:1024B0000F931F93CF93DF9300D0CDB7DEB7182FC4
:1024C0007B0100E021E040E059E06DE370E0CE01E7
:1024D00001960E94940F89819A810E94C80901E0A7
:1024E00021E030E0A701612F87EB92E00E94A31565
:1024F0000E94E20981E090E00F900F90DF91CF9170
:102500001F910F91FF90EF90089508959F92AF92C1
:10251000BF92CF92DF92EF92FF920F931F93CF93D0
:10252000DF9300D0CDB7DEB7982E6B015A01790149
:1025300000E021E040E059E06DE370E0CE0101965B
:102540000E94940F89819A810E94C809692D87EBA6
:1025500092E00E9461148E159F0530F4692D87EB7F
:1025600092E00E9461147C0187019501A601692D0A
:1025700087EB92E00E94B1140E94E209C7010F901C
:102580000F90DF91CF911F910F91FF90EF90DF900F
:10259000CF90BF90AF909F900895CF92DF92EF922F
:1025A000FF920F931F93CF93DF9300D0CDB7DEB789
:1025B000182F7B016A01FB018081811109C0818193
:1025C000811106C08281811103C083818823F1F0CB
:1025D000C114D104D9F000E021E040E059E06DE3FE
:1025E00070E0CE0101960E94940F89819A810E9429
:1025F000C809B701812F0E94C60FB601812F0E9422
:10260000FF0F0E94E20981E090E002C080E090E0CC
:102610000F900F90DF91CF911F910F91FF90EF904E
:10262000DF90CF9008950F931F93CF93DF9300D047
:10263000CDB7DEB7182F00E021E040E059E06DE3B0
:1026400070E0CE0101960E94940F89819A810E94C8
:10265000C80940E250E0612F87EB92E00E94F31539
:10266000812F0E94D90F84FD21C0812F0E94D90F94
:1026700083FF09C068E1812F0E94FA0F0E94E209DE
:1026800080E090E01BC00E94E2090E94391600E041
:1026900021E040E059E06DE370E0CE0101960E9438
:1026A000940F89819A810E94C809DACF60E1812F55
:1026B0000E94FA0F0E94E20981E090E00F900F90D3
:1026C000DF91CF911F910F9108958EBD00000DB441
:1026D00007FEFDCF8EB508952A9808952A9A089589
:1026E0001F93CF93DF9300D0CDB7DEB7182F6A8347
:1026F00099830E946C1380EF0E9465139981892F42
:102700000E946513812F0E9465136A81862F0E94A3
:1027100065130E946E1381E00F900F90DF91CF91AF
:102720001F910895CF93DF93EC016CE271E080E09C
:1027300090E00E94B3160E940316229A8091C9026B
:10274000882399F09FB7F8948091C902813059F499
:102750008DB38093C7022DB38091C80280958223E8
:102760008DBB9FBF02C09093C70280E58CBD1DBC8E
:1027700060E880E090E00E94701365E58BE190E0F6
:102780000E94701365E58AE190E00E9470138091C9
:10279000C902882361F09FB7F8942091C902809103
:1027A000C702213019F48DBB9FBF01C08FBF80E0ED
:1027B00090E49983888380E090E69987888780E019
:1027C00098E49B838A8380E098E69B878A8780E0F1
:1027D00090E59D838C8380E090E79D878C8780E0E7
:1027E00098E59F838E8380E098E79F878E87DF91AF
:1027F000CF910895CF92DF92EF92FF920F931F93A4
:10280000CF93DF93EC017A018B016C01C40ED51ECE
:10281000CC15DD05A1F00E946C1380EF0E946513BA
:102820008D2F0E9465138C2F0E9465132196F8014D
:1028300081918F010E9465130E946E13E9CFC70139
:10284000DF91CF911F910F91FF90EF90DF90CF908C
:1028500008951F93CF93DF931F92CDB7DEB7182F44
:1028600099830E946C138FE00E9465139981892FD0
:102870000E946513812F0E94651380E00E946513FA
:1028800089830E946E1389810F90DF91CF911F91F0
:1028900008951F93CF93DF93182F60E270E00E949A
:1028A000CF0FC82FD0E061E270E0812F0E94CF0FE0
:1028B000DC2FCC279E01282BC901DF91CF911F91DE
:1028C0000895FF920F931F93CF93DF93F62EC0E0EE
:1028D000D0E08F2D0E9449148C01009721F08F2D9C
:1028E0000E944914EC01C017D10799F7CE01DF917E
:1028F000CF911F910F91FF9008951F93CF93DF9376
:10290000182F66E270E00E94CF0FC82FD0E067E278
:1029100070E0812F0E94CF0FDC2FCC279E01282B47
:10292000C901DF91CF911F910895FF920F931F93DB
:10293000CF93DF93F62EC0E0D0E08F2D0E947D1460
:102940008C01009721F08F2D0E947D14EC01C0179F
:10295000D10799F7CE01DF91CF911F910F91FF9091
:1029600008956F927F929F92AF92BF92CF92DF9223
:10297000EF92FF920F931F93CF93DF931F92CDB7E8
:10298000DEB7D82E962E3A01590164E270E0892D07
:1029900099830E94CF0FE82EF12C65E270E0892D1B
:1029A0000E94CF0FFE2CEE24E82AE60CF71C9701BC
:1029B00037706D2C9981792E690C711C690C711C12
:1029C000D301ED91FC91E20FF31FC901800F911F1C
:1029D00081309840A0F0C12C48E0D42EC21AD30A0E
:1029E000A601B501CF010E94FA13A8014C195D0997
:1029F000B5016C0D7D1DF3018081918103C0A8019B
:102A0000B501CF010E94FA13E00EF11E4F2D64E2D2
:102A100070E0892D0E94DD0F4E2D65E270E0892D5A
:102A20000F90DF91CF911F910F91FF90EF90DF906A
:102A3000CF90BF90AF909F907F906F900C94DD0FE0
:102A40000F931F9389019A0140E050E00E94B11456
:102A50001F910F910895CF92DF92EF92FF920F9303
:102A60001F93CF93DF93EC017A018B016C01C40EAD
:102A7000D51ECC15DD05A9F00E946C138FE00E94D5
:102A800065138D2F0E9465138C2F0E94651321966C
:102A900080E00E946513F80181938F010E946E13FC
:102AA000E8CFC701DF91CF911F910F91FF90EF9079
:102AB000DF90CF900895AF92BF92CF92DF92EF92C6
:102AC000FF920F931F93CF93DF9300D0CDB7DEB764
:102AD0005A8349835901E981FA81F7707C01E60E36
:102AE000F11CE60EF11CD70118968D919C91199757
:102AF0008E0F9F1F98012E0F3F1F2130384098F0F6
:102B0000C12C68E0D62ECE1ADF0AA601B5010E94BC
:102B10002B15A8014C195D09B5016C0D7D1DF70140
:102B20008085918502C0A801B5010F900F90DF91BB
:102B3000CF911F910F91FF90EF90DF90CF90BF90BA
:102B4000AF900C942B158F929F92AF92BF92CF9221
:102B5000DF92EF92FF920F931F93CF93DF936C015D
:102B6000962E5A017901802E68E270E0892D0E942C
:102B7000CF0FC82FD0E069E270E0892D0E94CF0FFF
:102B8000DC2FCC27C82B87019501AE01692DC6012A
:102B90000E945B1581101AC0CE0DDF1D4D2F68E21B
:102BA00070E0892D0E94DD0F4C2F69E270E0892DC5
:102BB000DF91CF911F910F91FF90EF90DF90CF9019
:102BC000BF90AF909F908F900C94DD0FDF91CF91CD
:102BD0001F910F91FF90EF90DF90CF90BF90AF903B
:102BE0009F908F900895CF93C62F61E070E08C2F57
:102BF0000E94DD0F61E070E08C2F0E94CF0F8111E9
:102C0000F9CFCF910895CF93CFB7F8948091CA02AE
:102C1000811127C0EAE9F0E08491E6E8F0E09491C0
:102C2000E82FF0E0EE0FFF1FE255FF4FA591B491A2
:102C30008C91892321F461E08AE00E94781761E099
:102C40008AE00E943F178CB580618CBD8CB5806492
:102C50008CBD61E08DE00E943F1761E08BE00E9437
:102C60003F178091CA028F5F8093CA02CFBFCF9176
:102C7000089508951F920F920FB60F9211242F936B
:102C80003F938F939F93AF93BF938091CC0290918A
:102C9000CD02A091CE02B091CF023091CB0223E0C1
:102CA000230F2D3720F40196A11DB11D05C026E884
:102CB000230F0296A11DB11D2093CB028093CC025D
:102CC0009093CD02A093CE02B093CF028091D00218
:102CD0009091D102A091D202B091D3020196A11D90
:102CE000B11D8093D0029093D102A093D202B093F1
:102CF000D302BF91AF919F918F913F912F910F90F0
:102D00000FBE0F901F9018952FB7F8946091CC02CA
:102D10007091CD028091CE029091CF022FBF089585
:102D20003FB7F8948091D0029091D102A091D20245
:102D3000B091D30226B5A89B05C02F3F19F001968C
:102D4000A11DB11D3FBF6627782F892F9A2F620FD3
:102D5000711D811D911D42E0660F771F881F991F0D
:102D60004A95D1F70895CF92DF92EF92FF92CF93D9
:102D7000DF936B017C010E949016EB01C114D1041A
:102D8000E104F10489F00E9439160E9490166C1B30
:102D90007D0B683E734090F381E0C81AD108E108CA
:102DA000F108C851DC4FEACFDF91CF91FF90EF904F
:102DB000DF90CF900895789484B5826084BD84B507
:102DC000816084BD85B5826085BD85B5816085BD26
:102DD000EEE6F0E0808181608083E1E8F0E010823F
:102DE000808182608083808181608083E0E8F0E080
:102DF000808181608083E1EBF0E08081846080836A
:102E0000E0EBF0E0808181608083EAE7F0E08081A0
:102E10008460808380818260808380818160808300
:102E20008081806880831092C1000895833081F092
:102E300028F4813099F08230A1F008958730A9F00C
:102E40008830B9F08430D1F4809180008F7D03C048
:102E5000809180008F7780938000089584B58F776C
:102E600002C084B58F7D84BD08958091B0008F77B6
:102E700003C08091B0008F7D8093B0000895CF9300
:102E8000DF9390E0FC01E458FF4F2491FC01E057F0
:102E9000FF4F8491882349F190E0880F991FFC012E
:102EA000E255FF4FA591B4918C559F4FFC01C59100
:102EB000D4919FB7611108C0F8948C91209582231A
:102EC0008C93888182230AC0623051F4F8948C91EB
:102ED000322F309583238C938881822B888304C082
:102EE000F8948C91822B8C939FBFDF91CF910895A2
:102EF0000F931F93CF93DF931F92CDB7DEB7282F89
:102F000030E0F901E859FF4F8491F901E458FF4F8F
:102F10001491F901E057FF4F04910023C9F0882371
:102F200021F069830E9416176981E02FF0E0EE0F0F
:102F3000FF1FEC55FF4FA591B4919FB7F8948C916A
:102F4000611103C01095812301C0812B8C939FBF19
:102F50000F90DF91CF911F910F910895FC01818D0A
:102F6000228D90E0805C9F4F821B91098F7399277F
:102F70000895FC01918D828D981731F0828DE80FB4
:102F8000F11D858D90E008958FEF9FEF0895FC016E
:102F9000918D828D981761F0828DDF01A80FB11D90
:102FA0005D968C91928D9F5F9F73928F90E00895B4
:102FB0008FEF9FEF08958BE499E1892B49F080E032
:102FC00090E0892B29F00E944B1981110C9400008C
:102FD0000895FC01848DDF01A80FB11DA35ABF4FD6
:102FE0002C91848D90E001968F739927848FA68908
:102FF000B7892C93A089B1898C9180648C93938D2F
:10300000848D981306C00288F389E02D80818F7D1E
:1030100080830895CF93DF93EC01888D8823C9F0D6
:10302000EA89FB89808185FD05C0A889B9898C91D1
:1030300086FD0FC00FB607FCF5CF808185FFF2CF6C
:10304000A889B9898C9185FFEDCFCE010E94E9173F
:10305000E7CFDF91CF910895CF92DF92FF920F9348
:103060001F93CF93DF931F92CDB7DEB76C0181E042
:10307000D60158968C9358975B969C915B975C967B
:103080008C915C97981307C05096ED91FC915197E5
:10309000808185FD2EC0F601038D10E00F5F1F4F6C
:1030A0000F731127F02EF601848DF81211C00FB6A0
:1030B00007FCF9CFD6015096ED91FC915197808194
:1030C00085FFF1CFC60169830E94E9176981EBCFC3
:1030D000838DE80FF11DE35AFF4F6083D6015B96A5
:1030E0000C935B975296ED91FC915397808180628F
:1030F0000CC0D6015696ED91FC915797608350967F
:10310000ED91FC91519780818064808381E090E013
:103110000F90DF91CF911F910F91FF90DF90CF9093
:103120000895BF92CF92DF92EF92FF92CF93DF93F9
:10313000EC016A017B01B22EE889F98982E0808383
:10314000411581EE580761057105A1F060E079E055
:103150008DE390E0A70196010E94311B21503109B7
:10316000410951095695479537952795211580E1D5
:10317000380798F0E889F989108260E874E88EE1F0
:1031800090E0A70196010E94311B215031094109AD
:1031900051095695479537952795EC85FD853083E0
:1031A000EE85FF852083188EEC89FD89B082EA893F
:1031B000FB89808180618083EA89FB8980818860C6
:1031C0008083EA89FB89808180688083EA89FB8922
:1031D00080818F7D8083DF91CF91FF90EF90DF9092
:1031E000CF90BF9008951F920F920FB60F921124A7
:1031F0002F938F939F93EF93FF93E091E402F091CD
:10320000E5028081E091EA02F091EB0282FD12C0BA
:1032100090818091ED028F5F8F732091EE02821773
:1032200051F0E091ED02F0E0EC52FD4F958F80936C
:10323000ED0201C08081FF91EF919F918F912F91BD
:103240000F900FBE0F901F9018951F920F920FB600
:103250000F9211242F933F934F935F936F937F931C
:103260008F939F93AF93BF93EF93FF9384ED92E07F
:103270000E94E917FF91EF91BF91AF919F918F91BC
:103280007F916F915F914F913F912F910F900FBE62
:103290000F901F90189584ED92E00E94AE1721E0E8
:1032A000892B09F420E0822F08951092D702109202
:1032B000D60288EE93E0A0E0B0E08093D80290932D
:1032C000D902A093DA02B093DB0287EE91E09093EB
:1032D000D5028093D40285EC90E09093E102809334
:1032E000E00284EC90E09093E3028093E20280ECB1
:1032F00090E09093E5028093E40281EC90E090935B
:10330000E7028093E60282EC90E09093E9028093DA
:10331000E80286EC90E09093EB028093EA02109230
:10332000ED021092EE021092EF021092F002089558
:10333000AF92BF92CF92DF92EF92FF920F931F93C3
:10334000CF93DF936C017B01C0E0D0E000E010E0A0
:10335000F601EC0FFD1F4AE050E06281C7010E94B8
:10336000E51A5C016EE2C7010E94621A8A0D9B1D7C
:10337000080F191F2196C330D10551F74AE050E0DC
:10338000F6016581C7010E94E51A800F911FDF9148
:10339000CF911F910F91FF90EF90DF90CF90BF9052
:1033A000AF90089527EF31E0FC0131832083128232
:1033B00013821482158208950F93FC0187EF91E028
:1033C0009183808362834383248305830F910895CF
:1033D00027EF31E0FC0131832083FB0140815181E3
:1033E00062817381FC0142835383648375830895F2
:1033F000FB014081518162817381FC0142835383CF
:1034000064837583089587EF91E0909372038093AE
:10341000710310927303109274031092750310924B
:103420007603089508950E94DB160E94121A0E94E6
:10343000D000CBEDD7E10E94FC002097E1F30E9481
:10344000DB17F9CFCF92DF92EF92FF920F931F938A
:10345000CF93DF937C016A01EB0100E010E00C15D3
:103460001D0571F06991D701ED91FC910190F081FA
:10347000E02DC7010995892B19F00F5F1F4FEFCF82
:10348000C801DF91CF911F910F91FF90EF90DF90D6
:10349000CF9008956115710581F0DB010D9000203A
:1034A000E9F7AD0141505109461B570BDC01ED9185
:1034B000FC910280F381E02D099480E090E0089572
:1034C0000C944A1ADC01ED91FC910190F081E02D01
:1034D000099469EF71E00C944A1A0F931F93CF93EC
:1034E000DF93EC010E944A1A8C01CE010E94691AF6
:1034F000800F911FDF91CF911F910F9108958F92AF
:103500009F92AF92BF92CF92DF92EF92FF920F9372
:103510001F93CF93DF93CDB7DEB7A1970FB6F89483
:10352000DEBF0FBECDBF7C01C42EE52FCB01D22E56
:1035300019A221E02D1510F02AE0D22E8E010F5D88
:103540001F4F8D2C912CA12CB12C6C2D7E2FA50101
:1035500094010E94311B8C2DD29E801911240150A0
:1035600011098A3014F4805D01C0895CF801808300
:10357000211531054105510521F0C22EE32FCA0165
:10358000E4CFB801C7010E944A1AA1960FB6F89479
:10359000DEBF0FBECDBFDF91CF911F910F91FF9086
:1035A000EF90DF90CF90BF90AF909F908F90089555
:1035B0002115310541F4DC01ED91FC910190F08180
:1035C000E02D642F09940C947F1A9A01462F50E045
:1035D00060E070E00C94D81ACF93DF9300D000D055
:1035E000CDB7DEB79B01AC01611571058105910571
:1035F00069F069833A834B835C830E94E81B2981CD
:103600003A814B815C810E94531B03C060E070E0F3
:10361000CB010F900F900F900F90DF91CF910895F5
:10362000CF92DF92EF92FF926B017C0162177307DA
:103630008407950764F4CA01B9016C197D098E09E4
:103640009F090E94EC1A6C0D7D1D8E1D9F1DFF9021
:10365000EF90DF90CF90089570E09B01382BC90167
:103660000895A1E21A2EAA1BBB1BFD010DC0AA1FC3
:10367000BB1FEE1FFF1FA217B307E407F50720F0DB
:10368000A21BB30BE40BF50B661F771F881F991F56
:103690001A9469F760957095809590959B01AC019F
:1036A000BD01CF010895052E97FB1EF400940E94E2
:1036B0006A1B57FD07D00E94311B07FC03D04EF454
:1036C0000C946A1B50954095309521953F4F4F4F74
:1036D0005F4F089590958095709561957F4F8F4FBE
:1036E0009F4F089569279627692778278727782786
:1036F00008950E948A1BA59F900DB49F900DA49FD2
:10370000800D911D11240895EE0FFF1F0590F49177
:10371000E02D0994A29FB001B39FC001A39F700D3B
:10372000811D1124911DB29F700D811D1124911DC9
:1037300008958F929F92AF92BF92CF92DF92EF92B5
:10374000FF92CF93DF93EC01688179818A819B811D
:10375000611571058105910521F464E279ED8BE530
:1037600097E02DE133EF41E050E00E94531B490107
:103770005A019B01AC01A7EAB1E40E94791B6B01DD
:103780007C01ACEEB4EFA50194010E940D1CC60EA5
:10379000D71EE81EF91EF7FE06C081E0C81AD10840
:1037A000E10880E8F80AC882D982EA82FB82C70170
:1037B000B6019F77DF91CF91FF90EF90DF90CF9090
:1037C000BF90AF909F908F9008950E94991B08958D
:1037D00080E091E00E94991B08956093000170932E
:1037E000010180930201909303010895FB01DC0124
:1037F00004C08D910190801921F441505040C8F7C8
:10380000881B990B0895FB01DC0101900D920020AB
:10381000E1F70895B7FF0C94791B0E94791B821B76
:08382000930B0895F894FFCF0B
:103828000100000000AABBCCDE0200C001005E005F
:1038380000004D7920495020616464726573733AC1
:1038480020002E004661696C656420746F20636FE8
:103858006E6669677572652045746865726E657411
:10386800207573696E672044484350004572726F33
:10387800723A2072656E65776564206661696C00CE
:1038880052656E657765642073756363657373004D
:103898004572726F723A20726562696E6420666161
:1038A800696C00526562696E642073756363657341
:1038B800730057495A6E657400000000005A0B8364
:1038C8000B9D0BA60BC40BE70B630CEB0BC00BC0DB
:1038D8000CFA0C700B4B0B4E0B780B500B000000C6
:1038E80000530D8B0D4F0D9F0DE50D690DFE0D6AF3
:1038F8000D7F0D2B0F870D2B0EC80D340D3B0D4B77
:103908000D810E000000002C18221AAE17C717B937
:10391800170A180000000098190D0A006E616E0061
:08392800696E66006F7666000F
:00000001FF
