:100000000C9466000C948E000C948E000C948E0060
:100010000C948E000C948E000C948E000C948E0028
:100020000C948E000C948E000C948E000C948E0018
:100030000C948E000C948E000C948E000C948E0008
:100040000C9485130C948E000C943E160C94701630
:100050000C948E000C948E000C948E000C948E00E8
:100060000C948E000C948E00000000080002010029
:100070000003040700000000000000000102040863
:100080001020408001020408102001020408102002
:10009000040404040404040402020202020203032E
:1000A0000303030300000000250028002B000000CC
:1000B0000000240027002A00CD0129027402CB068B
:1000C000AC08420AA20CA0163E17EB0111241FBE79
:1000D000CFEFD8E0DEBFCDBF13E0A0E0B1E0E4E7B2
:1000E000F7E302C005900D92A433B107D9F724E0DD
:1000F000A4E3B3E001C01D92A734B207E1F710E01A
:10010000CAECD0E004C02297FE010E945719C83BF8
:10011000D107C9F70E944E170C94AD1B0C94000038
:10012000EF92FF920F931F93CF93DF9300D000D0F5
:1001300000D0CDB7DEB78C0168E171E0CE01019649
:100140000E94A618BE016F5F7F4F85E393E00E9477
:100150002F197C01CE0101960E943818F7FC0AC0C5
:1001600080913403882319F01092340303C081E096
:100170008093340380913403882339F061E082E076
:100180000E94C3146FE171E006C060E082E00E944B
:10019000C31464E771E0C8010E94B41726960FB635
:1001A000F894DEBF0FBECDBFDF91CF911F910F91AD
:1001B000FF90EF900895FF920F931F93CF93DF93DB
:1001C000CDB7DEB76B970FB6F894DEBF0FBECDBFCD
:1001D0006BE373E0CE010E960E94D509CE010E9618
:1001E0000E94FE06882309F4CCC0FF24F394CE01BC
:1001F0000E960E948808882309F4B9C0CE010E9695
:100200000E942B07892B99F3CE010E960E9434078A
:10021000282F682F85E393E02B8F0E94001962EC52
:1002200071E0CE0101960E94A618BE016F5F7F4F5C
:1002300085E393E00E942F198C01CE0101960E9464
:1002400038182B8D17FF87C02A3009F08BC0FF208C
:1002500061F26EEC71E0CE010E960E94B4176EED65
:1002600071E0CE010E960E94B41766EF71E0CE01E8
:100270000E960E94B417CE010E960E94B01768E049
:1002800072E0CE010E960E94B41768E172E0CE01D2
:100290000E960E94B4176FE172E0CE010E960E9496
:1002A000B41766E272E0CE010E960E94B41769E4BC
:1002B00072E0CE010E960E94B41761E572E0CE01A5
:1002C0000E960E94B41768E572E0CE010E960E9469
:1002D000B41765E672E0CE010E960E94B4176CE882
:1002E00072E0CE010E960E94B417888999899C838A
:1002F0008B838A899B89AC89BD898D839E83AF83DB
:10030000B8878E899F89A88DB98D89879A87AB8791
:10031000BC878CEB92E09A8389838A8D8D87CE018E
:1003200001960E94900060EA72E0CE010E960E9453
:10033000B41768EA72E0CE010E960E94B41760EB23
:1003400072E0CE010E960E94B41765E373E080EA76
:1003500093E00E949B1764E273E085E393E00E94C0
:10036000BC1805C02D3009F442CFF12C40CF61E01C
:1003700070E080E090E00E94FE13CE010E960E9495
:100380004E086B960FB6F894DEBF0FBECDBFDF915F
:10039000CF911F910F91FF9008950F9300E020E0FF
:1003A00040E060E087E493E00E94271705E62FE035
:1003B00048EA60EC81E493E00E94271760E570E072
:1003C0008BE393E00E94110964E273E085E393E01C
:1003D0000F910C94A61885E393E00C943818CF93F2
:1003E000DF9300D000D000D0CDB7DEB780E293E03D
:1003F0009A8389838091430390914403A09145039C
:10040000B09146038B839C83AD83BE83AE014F5F67
:100410005F4F6AE071E089E593E00E947D068BE31F
:1004200093E00E94CD0826E040E855E260E070E0ED
:1004300080EA93E00E94DC1561E082E00E948A1469
:1004400026960FB6F894DEBF0FBECDBFDF91CF91D9
:1004500008950F9300E020E040E060E08DE493E039
:100460000E9427170F910895FB01428153816481F7
:100470007581FC01428353836483758317821682DE
:100480000895FB0120E080E090E06AE031913323A1
:1004900009F170ED730F7A3080F4DC016A9FC001BE
:1004A0006B9F900D1124C097830F911D37FD9A9576
:1004B0008F3F910559F350F314C03E3291F423302D
:1004C00081F0DA01A20FB11D12968C932F5F80E0AC
:1004D00090E0DCCF233029F4FA01858381E090E0BD
:1004E000089580E090E008950F9300E020E040E060
:1004F00060E083E593E00E9427170F910895AF9283
:10050000BF92CF92DF92EF92FF920F931F93CF9300
:10051000DF9300D000D01F92CDB7DEB78C017B01F6
:100520000E94CF13F80177836683762767277627A3
:100530007A836983085F1F4F42E050E0BE016F5F1E
:100540007F4FC8010E94A40A81E090E09C838B83C6
:1005500042E050E0BE016D5F7F4FC8010E94A40AD7
:1005600080E091E09C838B8342E050E0BE016D5FB0
:100570007F4FC8010E94A40A1C821B8242E050E007
:10058000BE016D5F7F4FC8010E94A40A42E050E0A7
:10059000BE016D5F7F4FC8010E94A40A42E050E097
:1005A000BE016D5F7F4FC8010E94A40A6701F6017A
:1005B0008081882311F1F7016F018191811115C0AC
:1005C0005601AE18BF081A141B0494F4AD8241E022
:1005D00050E0BE016B5F7F4FC8010E94A40AA501D5
:1005E000B701C8010E94A40A03C08E3229F7E8CFE0
:1005F0007601FFEFEF1AFF0ADACF1D8241E050E0EB
:10060000BE016B5F7F4FC8010E94A40AE12CFF244A
:10061000F394FC82EB8242E050E0BE016D5F7F4FBD
:10062000C8010E94A40AFC82EB8242E050E0BE01B5
:100630006D5F7F4FC8010E94A40A81E090E00F9097
:100640000F900F900F900F90DF91CF911F910F910E
:10065000FF90EF90DF90CF90BF90AF9008954F92B2
:100660005F926F927F928F929F92AF92BF92CF9242
:10067000DF92EF92FF920F931F93CF93DF93CDB74B
:10068000DEB763970FB6F894DEBF0FBECDBF7C0117
:100690005B016A010E94CF132B013C018701085FB7
:1006A0001F4F4501A12CB12CC8010E94440B181604
:1006B000190694F00E94CF136419750986099709E9
:1006C00086169706A806B906D0F062E370E080E0CF
:1006D00090E00E94FE13E8CFF701428153816481CC
:1006E0007581808D918DA28DB38D481759076A074A
:1006F0007B0741F4848D958DC59721F406C08FEF5B
:100700009FEFFAC08EEF9FEFF7C0C8010E94680A02
:100710000C97ECF04CE050E0BE016F5F7F4FC801DA
:100720000E94E10A6C818B810E9433189A8B898B1D
:10073000F701E680F7806A8189810E943318E81604
:10074000F90641F489899A8997FF04C009C08DEFA1
:100750009FEFD2C0C8010E94820A8CEF9FEFCCC0ED
:100760008F709270892B31F0C8010E94820A8BEF42
:100770009FEFC2C068858F810E9433185C0100978B
:1007800019F0E12CF12C23C0C8010E94820A8AEFE3
:100790009FEFB2C041E050E0BE01635F7F4FC801F0
:1007A0000E94E10A8D8581111AC08D858111F2CFD9
:1007B000C8010E94B80AC8010E94B80AC8010E9474
:1007C000B80AC8010E94B80AFFEFEF1AFF0A6E814B
:1007D0008D810E943318E816F906E0F20AC08D8573
:1007E0009FEF980F9D87882301F3C8010E94B80AE4
:1007F000F6CFE12CF12C41E050E0BE016D5E7F4F61
:10080000C8010E94E10A8B89982F907C61F48823AB
:1008100071F08B899FEF980F9B8B882341F0C80163
:100820000E94B80AF6CFC8010E94B80A1B8A8B89B9
:100830008111E1CF42E050E0BE01615F7F4FC8010E
:100840000E94E10A42E050E0BE01635F7F4FC801B1
:100850000E94E10AC8010E94B80AC8010E94B80AB1
:10086000C8010E94B80AC8010E94B80A42E050E0DC
:10087000BE016F5E7F4FC8010E94E10A8F85988993
:100880008115914029F48D859E858115914019F03F
:10089000812C912C16C089899A898115944031F058
:1008A000C8010E94820A87EF9FEF26C0B6016E5FE3
:1008B0007F4F44E050E0C8010E94E10A81E090E0EF
:1008C0001BC089899A8998278927982788169906AD
:1008D00038F4C8010E94B80A2FEF821A920AF1CFA9
:1008E0008FEFE81AF80AEA14FB0409F084CFC80174
:1008F0000E94820A86EF9FEF63960FB6F894DEBFE0
:100900000FBECDBFDF91CF911F910F91FF90EF9060
:10091000DF90CF90BF90AF909F908F907F906F901F
:100920005F904F9008958F929F92AF92BF92CF9217
:10093000DF92EF92FF920F931F93CF93DF9300D03C
:1009400000D000D0CDB7DEB78C015B016A010E94F8
:1009500041024C01009709F05DC0F80142815381CA
:10096000648175818091550390915603A09157033E
:10097000B0915803481759076A077B0709F44EC01E
:100980000E94CF137801F8E0EF0EF11C6F7077270B
:100990007C5FC7010E94170B813009F043C080E2E1
:1009A00093E09A838983F80182819381A481B58140
:1009B0008B839C83AD83BE8345E350E0BE016F5FB4
:1009C0007F4FC7010E94980A892B19F4812C912C22
:1009D0001DC0B501C8010E947F02892BB9F3C70170
:1009E0000E94A00A892B91F333E0A32EB12CA6011B
:1009F00068E873E1C8010E942F034C01F1E0AF1ACF
:100A0000B10821F08F3F2FEF920789F3C7010E94B1
:100A1000830A08C088248394912C04C09EEF892EF9
:100A200099249A94C40126960FB6F894DEBF0FBE9F
:100A3000CDBFDF91CF911F910F91FF90EF90DF908D
:100A4000CF90BF90AF909F908F9008952091950385
:100A5000222399F03FB7F89420919503213059F45F
:100A60002DB3209393034DB3209194032095242319
:100A70002DBB3FBF02C0309393038CBD9DBD089535
:100A800080919503882361F09FB7F8942091950396
:100A900080919303213019F48DBB9FBF08958FBFC0
:100AA000089544E050E0BC0181E090E00C944511D1
:100AB00044E050E0BC0185E090E00C94451144E036
:100AC00050E0BC018FE090E00C9445118F929F9212
:100AD000AF92BF92CF92DF92EF92FF920F931F934C
:100AE000CF93DF9300D0CDB7DEB74C016A01590137
:100AF00083E893E069837A830E94DD1080E590E0CB
:100B00000E94260546E050E069817A8189E090E004
:100B10000E944511C60102960E945F05C801029617
:100B20000E945105C70102960E9458050E94400587
:100B3000F5014281538164817581F40142835383BD
:100B4000648375830F900F90DF91CF911F910F9168
:100B5000FF90EF90DF90CF90BF90AF909F908F90DD
:100B600008956F927F928F929F92AF92BF92CF9291
:100B7000DF92EF92FF920F931F93CF93DF93CDB746
:100B8000DEB76E970FB6F894DEBF0FBECDBF6C0117
:100B90005B017A014901380100E02FEF4FEF6FEF61
:100BA000CE0149960E94271720E233E03A83298339
:100BB0008B8D9C8DAD8DBE8D8B839C83AD83BE83D1
:100BC00038872F83F30182819381A481B58189873E
:100BD0009A87AB87BC873E872D87F40182819381FA
:100BE000A481B5818F87988BA98BBA8B3C8B2B8B7B
:100BF000F70142815381648175814D8B5E8B6F8BD0
:100C0000788FCE0101967C018E01095F1F4F9E01F6
:100C1000235F3F4FAE014D5E5F4FB501C6010E949D
:100C200066056E960FB6F894DEBF0FBECDBFDF919E
:100C3000CF911F910F91FF90EF90DF90CF90BF90D9
:100C4000AF909F908F907F906F900895CF92DF929A
:100C5000EF92FF920F931F93CF93DF93CDB7DEB741
:100C600068970FB6F894DEBF0FBECDBF6B01790158
:100C7000DA0112964D915D916D917C9115974D8B96
:100C80005E8B6F8B788FA0E2B3E0BA83A98321E0FB
:100C9000288F0D891E892F89388D0B831C832D8306
:100CA0003E83B887AF83F7010281138124813581A8
:100CB00009871A872B873C87BE87AD874F87588B5C
:100CC000698B7A8B8E010F5F1F4F9E01295F3F4F0B
:100CD000AE01435F5F4FB6010E94B10568960FB643
:100CE000F894DEBF0FBECDBFDF91CF911F910F9162
:100CF000FF90EF90DF90CF9008950F931F93CF93C5
:100D0000DF93CDB7DEB762970FB6F894DEBF0FBEA4
:100D1000CDBFDB01FA0142815381648175814F8728
:100D2000588B698B7A8BE0E2F3E0FA83E98321E068
:100D30002A8B0F85188929893A890B831C832D8377
:100D40003E83F887EF8349875A876B877C879E01AC
:100D50002F5F3F4FAE01495F5F4FBD010E942606E6
:100D600062960FB6F894DEBF0FBECDBFDF91CF9174
:100D70001F910F91089520E233E0FC01318320831D
:100D8000FB014281538164817581FC01428353835D
:100D90006483758308950F9300E020E040E060E0F5
:100DA00089E693E00E94271789E593E00F910C9460
:100DB0001D1781E086270895862F0895DC01ED91A7
:100DC000FC91048CF58DE02D099591E0892708951B
:100DD000CF93DF931F92CDB7DEB76983DC01ED912E
:100DE000FC910280F381E02D41E050E0BE016F5F95
:100DF0007F4F09950F90DF91CF91089521E0FC017D
:100E00008485843009F420E0822F0895FC019485C4
:100E1000FB018485981303C081E0943009F480E0DD
:100E200008950F931F93CF93DF93EC018A018C8574
:100E3000843021F00E947F0E892B39F481E090E00C
:100E40009B838A8380E090E001C0C801DF91CF914D
:100E50001F910F910895FC018485843011F00C944A
:100E6000760F80E090E00895CF93DF931F92CDB787
:100E7000DEB741E050E0BE016F5F7F4FFC0184852B
:100E80000E94160F181619061CF4898190E002C002
:100E90008FEF9FEF0F90DF91CF910895FC01848534
:100EA0000C94160F0F931F93CF93DF931F92CDB720
:100EB000DEB78C01DC01ED91FC910480F581E02D21
:100EC0000995892B51F0BE016F5F7F4FF801848532
:100ED0000E94A10F898190E002C08FEF9FEF0F90D9
:100EE000DF91CF911F910F910895FC0184850C949F
:100EF000D00FCF92DF92EF92FF920F931F93CF9379
:100F0000DF93CDB7DEB7AF970FB6F894DEBF0FBE55
:100F1000CDBF7C018B016A01CE0101960E941D1795
:100F2000CE0109960E942A0CCE018A960E941D17B6
:100F300069E573E0CE0184960E94BB06BE016C5D3C
:100F40007F4FCE0101960E943402AE01465D5F4F95
:100F5000B801CE0101960E94930481309105C1F43D
:100F6000D701ED91FC910484F585E02D80E293E0BA
:100F70009DA38CA30CA51DA52EA53FA50EA31FA365
:100F800028A739A7A601BE016C5D7F4FC70109954F
:100F9000AF960FB6F894DEBF0FBECDBFDF91CF91F5
:100FA0001F910F91FF90EF90DF90CF900895FC017B
:100FB000262F1382128248EE53E060E070E04483F3
:100FC0005583668377838CEB92E0918380832487BB
:100FD0000895FC018485843011F00C94290D80E083
:100FE0000895DF92EF92FF920F931F93CF93DF93B9
:100FF000EC017B018A018C85843009F045C0D12C3D
:101000008D2D0E94290D811102C0DC8607C08B7FC7
:101010008831D9F3D39484E0D812F2CF8C85843010
:1010200099F120911001309111012F5F3F4F11F480
:1010300020E030EC30931101209310014091100119
:101040005091110120E061E00E947B0DB7016E5FBD
:101050007F4FA8018C850E94010E811103C084E09E
:101060008C8712C0CE010E94E907873151F061E000
:1010700070E080E090E00E94FE13CE010E94E9073C
:10108000ECCF81E090E002C080E090E0DF91CF9172
:101090001F910F91FF90EF90DF900895CF92DF9214
:1010A000EF92FF92CF93DF93EC018C85843049F16E
:1010B0000E94590E0E94CF136B017C01CE010E9449
:1010C000E9078823A1F061E070E080E090E00E94F1
:1010D000FE130E94CF136C197D098E099F09683E8B
:1010E00073408105910550F38C850E94510DEC856C
:1010F000F0E0EE0FFF1FEF59FC4F1182108284E0E9
:101100008C87DF91CF91FF90EF90DF90CF90089583
:10111000CF93DF93EC018C858430D1F0CE010E9417
:10112000E9078431A9F0882399F0883189F08C315E
:1011300069F4E881F9810480F581E02DCE010995FB
:1011400021E0892B09F420E0822F03C081E001C057
:1011500080E0DF91CF9108950F9300E020E040E020
:1011600060E08FE693E00E9427170F910895CF93D8
:10117000DF931F92CDB7DEB76983DC01ED91FC915F
:101180000280F381E02D41E050E0BE016F5F7F4FB0
:1011900009950F90DF91CF910895EF92FF920F93F1
:1011A0001F93CF93DF93CDB7DEB72D970FB6F8948B
:1011B000DEBF0FBECDBF7C0100E010E0602FCE018E
:1011C00001960E94D707CE0101960E94E90781117E
:1011D00016C0F7014481558120E061E0802F0E9414
:1011E0007B0D802F0E94CF0DF70184819581F8013E
:1011F000EE0FFF1FEF59FC4F9183808305C00F5FF7
:101200001F4F04301105D1F62D960FB6F894DEBFAE
:101210000FBECDBFDF91CF911F910F91FF90EF9047
:101220000895FC011382128280EE92E09183808304
:10123000758364830895BF92CF92DF92EF92FF92FD
:101240000F931F93CF93DF93CDB7DEB72D970FB6D4
:10125000F894DEBF0FBECDBF8C0141E6C42E43E043
:10126000D42EB12CE12CF12C6B2DCE0101960E94D5
:10127000D707D6012D913D916D01F80184819581AB
:1012800028173907B1F4CE0101960E94E90784318D
:1012900069F0CE0101960E94E9078C3151F4CE012C
:1012A00001960E942B07892B99F003C0EE24E3944A
:1012B000F12CB394F4E0BF12D7CFEF2871F4D8012A
:1012C000ED91FC910480F581E02DC801099505C0E0
:1012D000CE0101960E944E08ECCF2D960FB6F894E1
:1012E000DEBF0FBECDBFDF91CF911F910F91FF9059
:1012F000EF90DF90CF90BF9008957F928F929F9252
:10130000AF92BF92CF92DF92EF92FF920F931F9313
:10131000CF93DF93CDB7DEB72D970FB6F894DEBF2E
:101320000FBECDBF6C015B014A010E941B0951E653
:10133000E52E53E0F52E712C00E010E0672DCE0174
:1013400001960E94D707F701219131917F01F601A3
:10135000848195812817390731F4CE0101960E94C6
:10136000E9078731C9F07394F4E07F12E7CFC80131
:101370002D960FB6F894DEBF0FBECDBFDF91CF9193
:101380001F910F91FF90EF90DF90CF90BF90AF90A3
:101390009F908F907F900895A401B501CE01019692
:1013A0000E941107080F191FDECFBF92CF92DF9264
:1013B000EF92FF920F931F93CF93DF93CDB7DEB7DA
:1013C0002D970FB6F894DEBF0FBECDBF8C016B0119
:1013D000CB010E941B0961E6E62E63E0F62EB12CDC
:1013E0006B2DCE0101960E94D707F7012191319113
:1013F0007F01F601848195812817390751F5CE01C7
:1014000001960E94E907873111F08C3111F5CE0168
:1014100001960E942B07892BE1F08B819C81F801BA
:10142000938382838D819E81AF81B88584839583E8
:10143000A683B78349855A856B857C85408751870C
:10144000628773878CEB92E0918380838D8584879C
:1014500008C0B394F4E0BF12C3CF64E0C8010E9497
:10146000D707C8012D960FB6F894DEBF0FBECDBFCB
:10147000DF91CF911F910F91FF90EF90DF90CF9070
:10148000BF9008950F9300E020E040E060E085E722
:1014900093E00E9427170F910895DC01ED91FC91D4
:1014A000008CF18DE02D099420E233E0FC013183C2
:1014B0002083FB014089518962897389FC01428341
:1014C0005383648375830895FC0184899589089505
:1014D000FC01818D928D0895CF93DF931F92CDB73C
:1014E000DEB76983DC01ED91FC910280F381E02D90
:1014F00041E050E0BE016F5F7F4F09950F90DF9193
:10150000CF9108950895CF93DF93EC01888D8430B7
:1015100061F00E94510DE88DF0E0EE0FFF1FEF59D2
:10152000FC4F1182108284E0888FDF91CF91089563
:10153000FC01178A168A6E5F7F4F808D0C941810FD
:10154000FC01808D0C945E10CF93DF93EC019A0127
:101550008E899F89AB01BC01888D0E94D10F2E8995
:101560003F89280F391F3F8B2E8BDF91CF91089534
:101570000F931F93CF93DF931F92CDB7DEB78C01EC
:10158000FC01818D928D892B59F041E050E0BE0124
:101590006F5F7F4F808D0E94160F181619061CF082
:1015A0008FEF9FEF08C0F801818D928D0197928F88
:1015B000818F898190E00F90DF91CF911F910F91E2
:1015C0000895CF93DF93EC01898D9A8D009719F4DC
:1015D0008FEF9FEF10C04817590708F0AC01888DB6
:1015E0000E94160F181619069CF7298D3A8D281B94
:1015F000390B3A8F298FDF91CF910895CF93DF93E5
:101600001F92CDB7DEB7FC01218D328D232B49F01F
:10161000BE016F5F7F4F808D0E94A10F898190E096
:1016200002C08FEF9FEF0F90DF91CF910895FF924F
:101630000F931F93CF93DF93EC018B01888D843040
:10164000E1F4F12C8F2D0E94290D811102C0F88E3A
:1016500006C08831E1F3F39484E0F812F3CF888D6B
:10166000843059F01D870C871A8E198E20E0A8014E
:1016700062E00E947B0D81E001C080E0DF91CF91AC
:101680001F910F91FF9008950F931F93CF93DF93B6
:10169000CDB7DEB728970FB6F894DEBF0FBECDBF2B
:1016A0008C01F801818D928D892B49F0D801ED9143
:1016B000FC910680F781E02DC8010995F2CF808D5D
:1016C0000E94760F1816190644F548E050E0BE0156
:1016D0006F5F7F4FD80158968C910E94160F181695
:1016E0001906ECF4BE016F5F7F4FC8010E960E9491
:1016F00033178D8190E0982F88272E81820F911DBE
:10170000F801958B848B8F8190E0982F882728850E
:10171000820F911D928F818F02C080E090E0289609
:101720000FB6F894DEBF0FBECDBFDF91CF911F91F2
:101730000F9108958F929F92AF92BF92CF92DF92B6
:10174000EF92FF920F931F93CF93DF9300D000D0BF
:1017500000D0CDB7DEB78C017B014A01FC01808D42
:10176000843009F063C073E0A72E74E0B72EC12C5B
:10177000D12CC5010E947411811103C0F801C08EE3
:101780000AC08831D9F3FFEFCF1ADF0AB394E4E03F
:10179000CE16D10471F7F801808D843009F446C06B
:1017A00096E0E2E1F1E0DE01119601900D929A954A
:1017B000E1F7F70193819F779C8394819D839581C5
:1017C0009E83B7016E5F7F4F90E0982F882744E09B
:1017D00050E0845F9B4F0E944511F801808D90E09E
:1017E0000496F82EEE24692DC70140960E94BB1086
:1017F000682DC70141960E94BB10F801808D90E0D2
:10180000982F882746E050E0BE016F5F7F4F8A5FC8
:101810009B4F0E944511F801128E118E20E8A40101
:1018200062E0808D0E947B0D81E001C080E0269601
:101830000FB6F894DEBF0FBECDBFDF91CF911F91E1
:101840000F91FF90EF90DF90CF90BF90AF909F905F
:101850008F900895CF93DF93EC011B821A8248EE9C
:1018600053E060E070E04C835D836E837F838AEE9B
:1018700092E099838883CE010E960E941D1784E022
:10188000888FDF91CF910895CF92DF92EF92FF92F0
:101890000F931F93CF93DF93CDB7DEB7AF970FB6FC
:1018A000F894DEBF0FBECDBF7C018B016A01CE0173
:1018B00001960E941D17CE0109960E942A0CCE01A6
:1018C0008A960E941D1769E573E0CE0184960E94F6
:1018D000BB06BE016C5D7F4FCE0101960E943402B3
:1018E000AE01465D5F4FB801CE0101960E949304A0
:1018F00081309105C1F4D701ED91FC910088F18907
:10190000E02D80E293E09DA38CA30CA51DA52EA540
:101910003FA50EA31FA328A739A7A601BE016C5D92
:101920007F4FC7010995AF960FB6F894DEBF0FBE83
:10193000CDBFDF91CF911F910F91FF90EF90DF907E
:10194000CF9008950F9300E020E040E060E08BE747
:1019500093E00E9427170F910895CF92DF92EF92A4
:10196000FF920F9330E0C12CF2E1DF2EFAE7EF2E69
:10197000F12C4C155D056E057F0540F4F694E79457
:10198000D794C7943F5F3630A1F737E041E0432753
:10199000211102C050E701C050E5242F30E03595F9
:1019A000279523700C70202B252BFC012083417080
:1019B00041830F91FF90EF90DF90CF90089590E0DA
:1019C000982F882744E050E0845F9B4F0C9445118A
:1019D000282F30E02C5F3F4F922F8827860F971FCC
:1019E0000C94741162E070E00C94E80CFB01282F59
:1019F00030E02C5F3F4F922F8827642F8E0F9F1F60
:101A00000C94BB10CF93DF93C82FD62F472F64E0E1
:101A100070E00E94F60C4D2F65E070E08C2FDF9196
:101A2000CF910C94F60C462F62E070E00C94F60C0B
:101A3000CF93DF93C82FD62F472F60E170E00E942D
:101A4000F60C4D2F61E170E08C2FDF91CF910C945B
:101A5000F60C0F931F93CF93DF9300D01F92CDB757
:101A6000DEB7182F00E021E040E059E06DE370E0C0
:101A7000CE0101960E94AD0C89819A810E942605B3
:101A800063E070E0812F0E94E80C8B830E94400588
:101A90008B810F900F900F90DF91CF911F910F913D
:101AA00008950F931F93CF93DF9300D0CDB7DEB788
:101AB000182F00E021E040E059E06DE370E0CE0136
:101AC00001960E94AD0C89819A810E94260540E111
:101AD00050E0612F83E893E00E943E136FEF812F67
:101AE0000E94130D0E9440050F900F90DF91CF913F
:101AF0001F910F910895CF92DF92EF92FF920F9373
:101B00001F93CF93DF9300D0CDB7DEB7182FD62E1B
:101B10007A01C22E8FEF860F8530A8F5812F0E94A3
:101B2000510D00E021E040E059E06DE370E0CE01AE
:101B300001960E94AD0C89819A810E9426054D2D47
:101B40004C2960E070E0812F0E94F60CE114F10452
:101B500011F0B7010AC060918103709182036F5F39
:101B60007F4F7093820360938103812F0E94020D47
:101B700041E050E0612F83E893E00E943E130E9411
:101B8000400581E001C080E00F900F90DF91CF9180
:101B90001F910F91FF90EF90DF90CF9008950F93DA
:101BA0001F93CF93DF9300D0CDB7DEB7182F00E09F
:101BB00021E040E059E06DE370E0CE0101960E9423
:101BC000AD0C89819A810E94260563E070E0812F27
:101BD0000E94E80C833121F00E94400580E00AC099
:101BE00042E050E0612F83E893E00E943E130E94A0
:101BF000400581E00F900F90DF91CF911F910F91E1
:101C00000895CF92DF92EF92FF920F931F93CF939D
:101C1000DF9300D0CDB7DEB7182F7B016A01FB013F
:101C200080818F3F51F481818F3F99F482818F3F72
:101C300081F483818F3F69F430C081110AC0FB01B8
:101C40008181811106C08281811103C08381882333
:101C500021F1C114D10409F100E021E040E059E094
:101C60006DE370E0CE0101960E94AD0C89819A81EE
:101C70000E942605B701812F0E94DF0CB601812F3B
:101C80000E94180D44E050E0612F83E893E00E9429
:101C90003E130E94400581E001C080E00F900F904C
:101CA000DF91CF911F910F91FF90EF90DF90CF9038
:101CB00008950F931F93CF93DF9300D0CDB7DEB776
:101CC000182F00E021E040E059E06DE370E0CE0124
:101CD00001960E94AD0C89819A810E94260548E0F8
:101CE00050E0612F83E893E00E943E130E9440057C
:101CF0000F900F90DF91CF911F910F910895BF9298
:101D0000CF92DF92EF92FF920F931F93CF93DF93C7
:101D100000D01F92CDB7DEB7B82E6B017A014130EB
:101D200088E0580718F0E12C98E0F92E00E021E057
:101D300040E059E06DE370E0CE0101960E94AD0CE9
:101D400089819A810E9426056B2D83E893E00E9489
:101D5000AC118C0163E070E08B2D0E94E80C8B834A
:101D60000E9440058B81873111F08C3131F40E9443
:101D700084130E151F05D0F202C0E12CF12C00E0F7
:101D800021E040E059E06DE370E0CE0101960E9451
:101D9000AD0C89819A810E9426059701A6016B2DC1
:101DA00083E893E00E946B1240E250E06B2D83E8E1
:101DB00093E00E943E138B2D0E94F20C84FD22C002
:101DC00063E070E08B2D0E94E80C811108C00E9436
:101DD00040058B2D0E94510D80E090E01AC00E94BA
:101DE00040050E94841300E021E040E059E06DE3EB
:101DF00070E0CE0101960E94AD0C89819A810E940B
:101E00002605D9CF60E18B2D0E94130D0E9440055D
:101E1000C7010F900F900F90DF91CF911F910F91FD
:101E2000FF90EF90DF90CF90BF900895AF92BF9258
:101E3000CF92DF92EF92FF920F931F93CF93DF9396
:101E400000D0CDB7DEB7182F5B016A0100E021E0BA
:101E500040E059E06DE370E0CE0101960E94AD0CC8
:101E600089819A810E942605612F83E893E00E9470
:101E7000E0117C010097A1F463E070E0812F0E94E3
:101E8000E80C843119F1882309F121E030E08C312C
:101E900011F420E030E0EE24FF24E21AF30A16C029
:101EA000C816D9060CF476011E141F047CF400E059
:101EB0009701A501612F83E893E00E94EE1240E4B0
:101EC00050E0612F83E893E00E943E130E9440059A
:101ED000C7010F900F90DF91CF911F910F91FF904D
:101EE000EF90DF90CF90BF90AF9008950F931F9326
:101EF000CF93DF9300D000D0CDB7DEB7182F00E02E
:101F000021E040E059E06DE370E0CE0101960E94CF
:101F1000AD0C89819A810E942605612F83E893E0A8
:101F20000E94E0118B839C830E9440058B819C81E1
:101F30000F900F900F900F90DF91CF911F910F9105
:101F40000895EF92FF920F931F93CF93DF9300D0EA
:101F5000CDB7DEB7182F7B0100E021E040E059E06B
:101F60006DE370E0CE0101960E94AD0C89819A81EB
:101F70000E94260501E021E030E0A701612F83E8FF
:101F800093E00E94EE120E94400581E090E00F90E5
:101F90000F90DF91CF911F910F91FF90EF900895D7
:101FA00008959F92AF92BF92CF92DF92EF92FF92ED
:101FB0000F931F93CF93DF9300D0CDB7DEB7982E4A
:101FC0006B015A01790100E021E040E059E06DE346
:101FD00070E0CE0101960E94AD0C89819A810E9429
:101FE0002605692D83E893E00E94AC118E159F05AC
:101FF00030F4692D83E893E00E94AC117C018701E5
:102000009501A601692D83E893E00E94FC110E94CE
:102010004005C7010F900F90DF91CF911F910F9155
:10202000FF90EF90DF90CF90BF90AF909F9008957A
:10203000CF92DF92EF92FF920F931F93CF93DF9394
:1020400000D0CDB7DEB7182F7B016A01FB0180817C
:10205000811109C08181811106C08281811103C073
:1020600083818823F1F0C114D104D9F000E021E08C
:1020700040E059E06DE370E0CE0101960E94AD0CA6
:1020800089819A810E942605B701812F0E94DF0C69
:10209000B601812F0E94180D0E94400581E090E05A
:1020A00002C080E090E00F900F90DF91CF911F91E0
:1020B0000F91FF90EF90DF90CF9008950F931F93B3
:1020C000CF93DF9300D0CDB7DEB7182F00E021E02B
:1020D00040E059E06DE370E0CE0101960E94AD0C46
:1020E00089819A810E94260540E250E0612F83E8B1
:1020F00093E00E943E13812F0E94F20C84FD21C0C8
:10210000812F0E94F20C83FF09C068E1812F0E9499
:10211000130D0E94400580E090E01BC00E94400526
:102120000E94841300E021E040E059E06DE370E09C
:10213000CE0101960E94AD0C89819A810E942605EC
:10214000DACF60E1812F0E94130D0E94400581E0EB
:1021500090E00F900F90DF91CF911F910F91089514
:102160008EBD00000DB407FEFDCF8EB508952A98F0
:1021700008952A9A08951F93CF93DF9300D0CDB787
:10218000DEB7182F6A8399830E94B71080EF0E94F0
:10219000B0109981892F0E94B010812F0E94B01039
:1021A0006A81862F0E94B0100E94B91081E00F90C2
:1021B0000F90DF91CF911F910895CF93DF93EC01A2
:1021C0006CE271E080E090E00E94FE130E944E13EA
:1021D000229A80919503882399F09FB7F894809173
:1021E0009503813059F48DB3809393032DB380917F
:1021F0009403809582238DBB9FBF02C0909393036D
:1022000080E58CBD1DBC60E880E090E00E94BB10C2
:1022100065E58BE190E00E94BB1065E58AE190E006
:102220000E94BB1080919503882361F09FB7F894BA
:102230002091950380919303213019F48DBB9FBFAA
:1022400001C08FBF80E090E49983888380E090E6AE
:102250009987888780E098E49B838A8380E098E66A
:102260009B878A8780E090E59D838C8380E090E760
:102270009D878C8780E098E59F838E8380E098E738
:102280009F878E87DF91CF910895CF92DF92EF9253
:10229000FF920F931F93CF93DF93EC017A018B0191
:1022A0006C01C40ED51ECC15DD05A1F00E94B7103F
:1022B00080EF0E94B0108D2F0E94B0108C2F0E94D2
:1022C000B0102196F80181918F010E94B0100E94F8
:1022D000B910E9CFC701DF91CF911F910F91FF9006
:1022E000EF90DF90CF9008951F93CF93DF931F92CD
:1022F000CDB7DEB7182F99830E94B7108FE00E94E8
:10230000B0109981892F0E94B010812F0E94B010C7
:1023100080E00E94B01089830E94B91089810F90DB
:10232000DF91CF911F9108951F93CF93DF93182FC3
:1023300060E270E00E94E80CC82FD0E061E270E03B
:10234000812F0E94E80CDC2FCC279E01282BC9018D
:10235000DF91CF911F910895FF920F931F93CF9319
:10236000DF93F62EC0E0D0E08F2D0E9494118C01F7
:10237000009721F08F2D0E949411EC01C017D10716
:1023800099F7CE01DF91CF911F910F91FF900895A2
:102390001F93CF93DF93182F66E270E00E94E80C42
:1023A000C82FD0E067E270E0812F0E94E80CDC2F9C
:1023B000CC279E01282BC901DF91CF911F91089551
:1023C000FF920F931F93CF93DF93F62EC0E0D0E0E0
:1023D0008F2D0E94C8118C01009721F08F2D0E9433
:1023E000C811EC01C017D10799F7CE01DF91CF9149
:1023F0001F910F91FF9008956F927F929F92AF92DD
:10240000BF92CF92DF92EF92FF920F931F93CF93E1
:10241000DF931F92CDB7DEB7D82E962E3A01590121
:1024200064E270E0892D99830E94E80CE82EF12C7B
:1024300065E270E0892D0E94E80CFE2CEE24E82A6B
:10244000E60CF71C970137706D2C9981792E690C79
:10245000711C690C711CD301ED91FC91E20FF31F0B
:10246000C901800F911F81309840A0F0C12C48E035
:10247000D42EC21AD30AA601B501CF010E9445117C
:10248000A8014C195D09B5016C0D7D1DF30180811A
:10249000918103C0A801B501CF010E944511E00E52
:1024A000F11E4F2D64E270E0892D0E94F60C4E2D36
:1024B00065E270E0892D0F90DF91CF911F910F9110
:1024C000FF90EF90DF90CF90BF90AF909F907F9064
:1024D0006F900C94F60C0F931F9389019A0140E0C2
:1024E00050E00E94FC111F910F910895CF92DF924E
:1024F000EF92FF920F931F93CF93DF93EC017A013A
:102500008B016C01C40ED51ECC15DD05A9F00E940F
:10251000B7108FE00E94B0108D2F0E94B0108C2F4A
:102520000E94B010219680E00E94B010F8018193C3
:102530008F010E94B910E8CFC701DF91CF911F91A1
:102540000F91FF90EF90DF90CF900895AF92BF92E0
:10255000CF92DF92EF92FF920F931F93CF93DF936F
:1025600000D0CDB7DEB75A8349835901E981FA819A
:10257000F7707C01E60EF11CE60EF11CD7011896EF
:102580008D919C9119978E0F9F1F98012E0F3F1FC1
:102590002130384098F0C12C68E0D62ECE1ADF0AE0
:1025A000A601B5010E947612A8014C195D09B5017A
:1025B0006C0D7D1DF7018085918502C0A801B501D4
:1025C0000F900F90DF91CF911F910F91FF90EF909F
:1025D000DF90CF90BF90AF900C9476128F929F9225
:1025E000AF92BF92CF92DF92EF92FF920F931F9321
:1025F000CF93DF936C01962E5A017901802E68E209
:1026000070E0892D0E94E80CC82FD0E069E270E0EC
:10261000892D0E94E80CDC2FCC27C82B870195015F
:10262000AE01692DC6010E94A61281101AC0CE0DFE
:10263000DF1D4D2F68E270E0892D0E94F60C4C2FB3
:1026400069E270E0892DDF91CF911F910F91FF908A
:10265000EF90DF90CF90BF90AF909F908F900C94B1
:10266000F60CDF91CF911F910F91FF90EF90DF90CB
:10267000CF90BF90AF909F908F900895CF93C62F2B
:1026800061E070E08C2F0E94F60C61E070E08C2F0E
:102690000E94E80C8111F9CFCF910895CF93CFB765
:1026A000F89480919603811127C0EAE9F0E08491C3
:1026B000E6E8F0E09491E82FF0E0EE0FFF1FE2551E
:1026C000FF4FA591B4918C91892321F461E08AE0B8
:1026D0000E94C31461E08AE00E948A148CB5806174
:1026E0008CBD8CB580648CBD61E08DE00E948A1445
:1026F00061E08BE00E948A14809196038F5F809343
:102700009603CFBFCF91089508951F920F920FB6F1
:102710000F9211242F933F938F939F93AF93BF9367
:102720008091980390919903A0919A03B0919B0393
:102730003091970323E0230F2D3720F40196A11D3C
:10274000B11D05C026E8230F0296A11DB11D2093DF
:1027500097038093980390939903A0939A03B0935F
:102760009B0380919C0390919D03A0919E03B09147
:102770009F030196A11DB11D80939C0390939D031F
:10278000A0939E03B0939F03BF91AF919F918F91B0
:102790003F912F910F900FBE0F901F9018952FB75C
:1027A000F894609198037091990380919A039091A5
:1027B0009B032FBF08953FB7F89480919C0390919D
:1027C0009D03A0919E03B0919F0326B5A89B05C0D1
:1027D0002F3F19F00196A11DB11D3FBF6627782F2D
:1027E000892F9A2F620F711D811D911D42E0660F86
:1027F000771F881F991F4A95D1F70895CF92DF92CE
:10280000EF92FF92CF93DF936B017C010E94DB1369
:10281000EB01C114D104E104F10489F00E94841396
:102820000E94DB136C1B7D0B683E734090F381E0CC
:10283000C81AD108E108F108C851DC4FEACFDF918E
:10284000CF91FF90EF90DF90CF900895789484B56A
:10285000826084BD84B5816084BD85B5826085BD9C
:1028600085B5816085BDEEE6F0E080818160808382
:10287000E1E8F0E010828081826080838081816065
:102880008083E0E8F0E0808181608083E1EBF0E02C
:10289000808184608083E0EBF0E0808181608083D0
:1028A000EAE7F0E0808184608083808182608083B9
:1028B0008081816080838081806880831092C100E4
:1028C0000895833081F028F4813099F08230A1F0AE
:1028D00008958730A9F08830B9F08430D1F4809120
:1028E00080008F7D03C0809180008F77809380006F
:1028F000089584B58F7702C084B58F7D84BD089517
:102900008091B0008F7703C08091B0008F7D80935D
:10291000B0000895CF93DF9390E0FC01E458FF4F9F
:102920002491FC01E057FF4F8491882349F190E006
:10293000880F991FFC01E255FF4FA591B4918C556A
:102940009F4FFC01C591D4919FB7611108C0F894C5
:102950008C91209582238C93888182230AC06230D7
:1029600051F4F8948C91322F309583238C93888185
:10297000822B888304C0F8948C91822B8C939FBF08
:10298000DF91CF9108950F931F93CF93DF931F9201
:10299000CDB7DEB7282F30E0F901E859FF4F849119
:1029A000F901E458FF4F1491F901E057FF4F0491EA
:1029B0000023C9F0882321F069830E946114698192
:1029C000E02FF0E0EE0FFF1FEC55FF4FA591B49103
:1029D0009FB7F8948C91611103C01095812301C0B9
:1029E000812B8C939FBF0F90DF91CF911F910F91FF
:1029F0000895FC01818D228D90E0805C9F4F821BA9
:102A000091098F7399270895FC01918D828D9817F4
:102A100031F0828DE80FF11D858D90E008958FEFE4
:102A20009FEF0895FC01918D828D981761F0828D42
:102A3000DF01A80FB11D5D968C91928D9F5F9F73F2
:102A4000928F90E008958FEF9FEF089586E996E1C9
:102A5000892B49F080E090E0892B29F00E9496169E
:102A600081110C9400000895FC01848DDF01A80FF2
:102A7000B11DA35ABF4F2C91848D90E001968F73A6
:102A80009927848FA689B7892C93A089B1898C91C5
:102A900080648C93938D848D981306C00288F3898B
:102AA000E02D80818F7D80830895CF93DF93EC01AB
:102AB000888D8823C9F0EA89FB89808185FD05C05E
:102AC000A889B9898C9186FD0FC00FB607FCF5CF98
:102AD000808185FFF2CFA889B9898C9185FFEDCFE0
:102AE000CE010E943415E7CFDF91CF910895CF92A8
:102AF000DF92FF920F931F93CF93DF931F92CDB777
:102B0000DEB76C0181E0D60158968C9358975B969E
:102B10009C915B975C968C915C97981307C050963C
:102B2000ED91FC915197808185FD2EC0F601038DBA
:102B300010E00F5F1F4F0F731127F02EF601848DE9
:102B4000F81211C00FB607FCF9CFD6015096ED91DF
:102B5000FC915197808185FFF1CFC60169830E9466
:102B600034156981EBCF838DE80FF11DE35AFF4FD8
:102B70006083D6015B960C935B975296ED91FC9126
:102B80005397808180620CC0D6015696ED91FC91DE
:102B9000579760835096ED91FC91519780818064A6
:102BA000808381E090E00F90DF91CF911F910F9192
:102BB000FF90DF90CF900895BF92CF92DF92EF9277
:102BC000FF92CF93DF93EC016A017B01B22EE8897B
:102BD000F98982E08083411581EE5807610571050E
:102BE000A1F060E079E08DE390E0A70196010E94FA
:102BF00033192150310941095109569547953795A7
:102C00002795211580E1380798F0E889F989108225
:102C100060E874E88EE190E0A70196010E94331904
:102C20002150310941095109569547953795279506
:102C3000EC85FD853083EE85FF852083188EEC8939
:102C4000FD89B082EA89FB89808180618083EA897D
:102C5000FB89808188608083EA89FB898081806824
:102C60008083EA89FB8980818F7D8083DF91CF918A
:102C7000FF90EF90DF90CF90BF9008951F920F923A
:102C80000FB60F9211242F938F939F93EF93FF937F
:102C9000E091B003F091B1038081E091B603F0912F
:102CA000B70382FD12C090818091B9038F5F8F734B
:102CB0002091BA03821751F0E091B903F0E0E05699
:102CC000FC4F958F8093B90301C08081FF91EF91F4
:102CD0009F918F912F910F900FBE0F901F9018957D
:102CE0001F920F920FB60F9211242F933F934F9381
:102CF0005F936F937F938F939F93AF93BF93EF9364
:102D0000FF9380EA93E00E943415FF91EF91BF9109
:102D1000AF919F918F917F916F915F914F913F9173
:102D20002F910F900FBE0F901F90189580EA93E09F
:102D30000E94F91421E0892B09F420E0822F0895E4
:102D40001092A3031092A20388EE93E0A0E0B0E0FB
:102D50008093A4039093A503A093A603B093A70325
:102D600080E193E09093A1038093A00385EC90E031
:102D70009093AD038093AC0384EC90E09093AF0309
:102D80008093AE0380EC90E09093B1038093B00306
:102D900081EC90E09093B3038093B20382EC90E0D7
:102DA0009093B5038093B40386EC90E09093B703BF
:102DB0008093B6031092B9031092BA031092BB032A
:102DC0001092BC030895AF92BF92CF92DF92EF9220
:102DD000FF920F931F93CF93DF936C017B01C0E0B1
:102DE000D0E000E010E0F601EC0FFD1F4AE050E0FB
:102DF0006281C7010E942C185C016EE2C7010E942B
:102E0000A9178A0D9B1D080F191F2196C330D105E4
:102E100051F74AE050E0F6016581C7010E942C1885
:102E2000800F911FDF91CF911F910F91FF90EF9035
:102E3000DF90CF90BF90AF90089520E233E0FC0187
:102E400031832083128213821482158208950F9396
:102E5000FC0180E293E09183808362834383248337
:102E600005830F910895FB01408151816281738137
:102E7000FC014283538364837583089580E293E069
:102E800090933E0480933D0410923F0410924004BE
:102E90001092410410924204089508950E9426144D
:102EA0000E944D170E94EF01C6E2D5E10E94DB00AF
:102EB0002097E1F30E942615F9CFCF92DF92EF928F
:102EC000FF920F931F93CF93DF937C016A01EB0175
:102ED00000E010E00C151D0571F06991D701ED912E
:102EE000FC910190F081E02DC7010995892B19F023
:102EF0000F5F1F4FEFCFC801DF91CF911F910F914F
:102F0000FF90EF90DF90CF9008956115710581F0EB
:102F1000DB010D900020E9F7AD0141505109461B3E
:102F2000570BDC01ED91FC910280F381E02D0994B7
:102F300080E090E00895DC01ED91FC91DB011496B6
:102F40004D915C9115976D917C910280F381E02DFC
:102F50000994DC01ED91FC910190F081E02D099440
:102F600062E273E00C9485170F931F93CF93DF9366
:102F7000EC010E9485178C01CE010E94B017800FD2
:102F8000911FDF91CF911F910F9108958F929F9282
:102F9000AF92BF92CF92DF92EF92FF920F931F9367
:102FA000CF93DF93CDB7DEB7A1970FB6F894DEBF0E
:102FB0000FBECDBF7C01C42EE52FCB01D22E19A2AE
:102FC00021E02D1510F02AE0D22E8E010F5D1F4F4B
:102FD0008D2C912CA12CB12C6C2D7E2FA501940150
:102FE0000E9433198C2DD29E801911240150110991
:102FF0008A3014F4805D01C0895CF801808321155A
:1030000031054105510521F0C22EE32FCA01E4CF5D
:10301000B801C7010E948517A1960FB6F894DEBFCC
:103020000FBECDBFDF91CF911F910F91FF90EF9019
:10303000DF90CF90BF90AF909F908F900895211513
:10304000310541F4DC01ED91FC910190F081E02D1E
:10305000642F09940C94C6179A01462F50E060E043
:1030600070E00C941F1870E09B01382BC901089583
:10307000FC01808191810C94F319CF93DF93EC01D3
:1030800088819981009711F00E94F31919821882A2
:103090001D821C821B821A82DF91CF9108950F93AB
:1030A0001F93CF93DF93EC018B016F5F7F4F88817C
:1030B00099810E94821A009731F0998388831B833B
:1030C0000A8381E001C080E0DF91CF911F910F91D1
:1030D0000895CF93DF93EC0188819981892B29F0A2
:1030E0008A819B818617970760F4CE010E944F1852
:1030F000882341F08C819D81892B19F4E881F98125
:10310000108281E0DF91CF910895EF92FF920F93AB
:103110001F93CF93DF93EC017B018A01BA010E94D8
:103120006918811104C0CE010E943D1807C01D839B
:103130000C83B701888199810E94551BCE01DF91D4
:10314000CF911F910F91FF90EF900895FC01118294
:10315000108213821282158214826115710559F052
:10316000FB0101900020E9F7AF0141505109461BD6
:10317000570B0C9485180895CF93DF93EC016115DC
:10318000710561F0FB0101900020E9F7AF014150AA
:103190005109461B570B0E94851802C00E943D181A
:1031A000CE01DF91CF910895EF92FF920F931F937D
:1031B000CF93DF93EC017B010C811D8161157105BB
:1031C00011F480E016C04115510591F0040F151F50
:1031D000B8010E9469188823A1F3288139818C8164
:1031E0009D81B701820F931F0E94551B1D830C8385
:1031F00081E0DF91CF911F910F91FF90EF900895A3
:10320000CF93DF9300D0CDB7DEB769831A8241E058
:1032100050E0BE016F5F7F4F0E94D4180F900F9057
:10322000DF91CF910895CF93DF93FC018481958145
:103230004817590778F4C081D181FB016081718101
:10324000CE01840F951F0E945C1B009719F08C1B08
:103250009D0B02C08FEF9FEFDF91CF91089540E06B
:1032600050E00C941319A1E21A2EAA1BBB1BFD01FE
:103270000DC0AA1FBB1FEE1FFF1FA217B307E40755
:10328000F50720F0A21BB30BE40BF50B661F771FAD
:10329000881F991F1A9469F760957095809590958D
:1032A0009B01AC01BD01CF010895EE0FFF1F0590FA
:1032B000F491E02D0994CF93DF938230910510F4BF
:1032C00082E090E0E0914504F091460420E030E097
:1032D000A0E0B0E0309739F140815181481759079B
:1032E000B8F04817590771F482819381109729F03B
:1032F00013969C938E9312972CC0909346048093C0
:10330000450427C02115310531F04217530718F045
:10331000A901DB0101C0EF019A01BD01DF010280BB
:10332000F381E02DD7CF21153105F9F0281B390B9A
:103330002430310580F48A819B816115710521F06B
:10334000FB019383828304C09093460480934504D9
:10335000FE01329644C0FE01E20FF31F8193919368
:1033600022503109398328833AC020914304309197
:103370004404232B41F42091020130910301309346
:103380004404209343042091000130910101211550
:10339000310541F42DB73EB740910401509105012C
:1033A000241B350BE0914304F0914404E217F3072A
:1033B000A0F42E1B3F0B2817390778F0AC014E5FA5
:1033C0005F4F2417350748F04E0F5F1F509344049A
:1033D000409343048193919302C0E0E0F0E0CF0179
:1033E000DF91CF910895CF93DF93009709F487C0C1
:1033F000FC01329713821282C0914504D091460499
:10340000209781F420813181280F391F8091430456
:10341000909144048217930779F5F0934404E09364
:1034200043046DC0DE0120E030E0AE17BF0750F46A
:1034300012964D915C9113979D014115510509F12B
:10344000DA01F3CFB383A28340815181840F951FAA
:103450008A179B0771F48D919C911197840F951F8A
:1034600002969183808312968D919C9113979383FA
:1034700082832115310529F4F0934604E093450435
:103480003EC0D9011396FC93EE9312974D915D9136
:10349000A40FB51FEA17FB0779F480819181840F8F
:1034A000951F0296D90111969C938E9382819381E8
:1034B00013969C938E931297E0E0F0E08A819B81B3
:1034C000009719F0FE01EC01F9CFCE010296288198
:1034D0003981820F931F20914304309144042817AF
:1034E000390769F4309729F4109246041092450484
:1034F00002C013821282D0934404C0934304DF912C
:10350000CF910895A0E0B0E0E8E8FAE10C947A1BCE
:10351000EC01CB01209719F40E945B19B8C0FE01A1
:10352000E60FF71F9E0122503109E217F30708F456
:10353000ACC0D9010D911C91119706171707B8F06F
:103540000530110508F49FC0A801445051094617E1
:10355000570708F498C002501109061B170B019376
:1035600011936D937C93CF010E94F3198CC05B0182
:10357000A01AB10A4E01800E911EA0914504B0918F
:103580004604612C712C60E070E0109709F449C08A
:10359000A815B905C9F5ED90FC901197670142E0B7
:1035A000C40ED11CCA14DB0478F147018A189B08A9
:1035B000640142E0C40ED11C1296BC90129713967F
:1035C000AC91B5E0CB16D10440F0B282A3839182D6
:1035D0008082D9018D939C9309C00E5F1F4F0E0D01
:1035E0001F1DF90111830083EB2DFA2F6115710561
:1035F00031F0DB011396FC93EE93129744C0F093E5
:103600004604E09345043FC06D917C911197661686
:10361000770608F43B01BD0112960D90BC91A02DD8
:10362000B4CF609143047091440468157905E9F4BE
:1036300068167906D0F440910001509101014115BE
:10364000510541F44DB75EB76091040170910501D9
:10365000461B570BE417F507C0F4F0934404E093BE
:103660004304F901918380830EC00E945B197C01A1
:10367000009759F0A801BE010E944C1BCE010E9488
:10368000F319C70104C0CE0102C080E090E0CDB7BD
:10369000DEB7EEE00C94961BFB01DC0102C001904A
:1036A0000D9241505040D8F70895FB01DC01019084
:1036B0000D920020E1F70895FB0151915523A9F0E7
:1036C000BF01DC014D9145174111E1F759F4CD01DE
:1036D0000190002049F04D9140154111C9F3FB01C3
:1036E0004111EFCF81E090E0019708952F923F9232
:1036F0004F925F926F927F928F929F92AF92BF9202
:10370000CF92DF92EF92FF920F931F93CF93DF93AD
:10371000CDB7DEB7CA1BDB0B0FB6F894DEBF0FBE0A
:10372000CDBF09942A88398848885F846E847D8457
:103730008C849B84AA84B984C884DF80EE80FD8059
:103740000C811B81AA81B981CE0FD11D0FB6F894CF
:10375000DEBF0FBECDBFED01089510E0CAECD0E092
:1037600004C0FE010E9457192296CC3CD107C9F72C
:04377000F894FFCFFB
:103774000000470480000100000000AABBCCDE0268
:1037840000C001005E0000004C4544323D32003C64
:10379400696E70757420747970653D226368656321
:1037A4006B626F7822206E616D653D224C45443218
:1037B400222076616C75653D223222202020202053
:1037C400202020206F6E636C69636B3D22737562E9
:1037D4006D697428293B22636865636B65643E4C9C
:1037E400454432003C696E70757420747970653D8F
:1037F40022636865636B626F7822206E616D653D3C
:10380400224C454432222076616C75653D22322279
:103814002020202020202020206F6E636C69636BA1
:103824003D227375626D697428293B223E4C4544E0
:10383400320066617669636F6E2E69636F00485467
:1038440054502F312E3120323030204F4B00436FF3
:103854006E74656E742D547970653A20746578744D
:103864002F68746D6C00436F6E6E656374696F6E60
:103874003A20636C6F7365003C21444F43545950A4
:10388400452068746D6C3E003C68746D6C3E003C71
:10389400686561643E003C7469746C653E417264A1
:1038A40075696E6F204C454420436F6E74726F6C63
:1038B4003C2F7469746C653E003C2F686561643EFE
:1038C400003C626F64793E003C68313E4C45443CA8
:1038D4002F68313E003C703E436C69636B20746F0B
:1038E40020737769746368204C4544206F6E2061AF
:1038F4006E64206F66662E3C2F703E003C666F72CD
:103904006D206D6574686F643D22676574223E00A6
:103914003C2F666F726D3E003C2F626F64793E00EF
:103924003C2F68746D6C3E0000000000E80611072F
:103934002B07340752077507F10779074E074E081E
:103944008808FE06D906DC060607DE06000000002D
:10395400B7087D09CD08000000006C0AA40A680AB3
:10396400B80AFE0A820A170B830A980A440CA00AB2
:10397400440BE10A4D0A540A640A9A0B0000000041
:1039840077155D17F914121504155515000000007C
:10399400E3160D0A006E616E00696E66006F76664E
:0439A400002E0000F1
:00000001FF
