:100000000C9466000C948E000C948E000C948E0060
:100010000C948E000C948E000C948E000C948E0028
:100020000C948E000C948E000C948E000C948E0018
:100030000C948E000C948E000C948E000C948E0008
:100040000C94B7130C948E000C9490160C94C2165A
:100050000C948E000C948E000C948E000C948E00E8
:100060000C948E000C948E00000000080002010029
:100070000003040700000000000000000102040863
:100080001020408001020408102001020408102002
:10009000040404040404040402020202020203032E
:1000A0000303030300000000250028002B000000CC
:1000B0000000240027002A004A02D8022303FD067C
:1000C000DE08740AD40CF216A017680211241FBEB1
:1000D000CFEFD8E0DEBFCDBF13E0A0E0B1E0E0E2BB
:1000E000FFE302C005900D92A23EB107D9F724E0CC
:1000F000A2EEB3E001C01D92A53FB207E1F710E008
:10010000CAECD0E004C02297FE010E942D1DC83B1E
:10011000D107C9F70E94B0170C94831F0C940000FC
:10012000EF92FF920F931F93CF93DF9300D000D0F5
:1001300000D0CDB7DEB78C0161E271E0CE0101964F
:100140000E945D1ABE016F5F7F4F83EE93E00E94B5
:10015000E61A7C01CE0101960E94EF19F7FC0AC055
:100160008091E203882319F01092E20303C081E03A
:100170008093E2038091E203882339F061E082E01A
:100180000E94151568E271E006C060E082E00E94FE
:1001900015156DE771E0C8010E94221826960FB66A
:1001A000F894DEBF0FBECDBFDF91CF911F910F91AD
:1001B000FF90EF9008959F92AF92BF92CF92DF92FF
:1001C000EF92FF920F931F93CF93DF93CDB7DEB7DC
:1001D0006B970FB6F894DEBF0FBECDBF80E10E94D3
:1001E00096148C0180E10E949614BC01882777FD4B
:1001F0008095982F0E94EE1B26EF38E244E251E4EE
:100200000E94531B6B017C016BEC71E08EE494E067
:100210000E940B1821E030E0B701A6018EE494E0C3
:100220000E94E8196BEE71E08EE494E00E942218BF
:1002300064E670E080E090E00E94301469EE73E0C4
:10024000CE010E960E94070ACE010E960E9430073C
:10025000882309F40DC199249394CE010E960E942F
:10026000BA08882309F4FAC0CE010E960E945D07F1
:10027000892B99F3CE010E960E946607282F682FCE
:1002800083EE93E02B8F0E94B71A6EEE71E0CE01E1
:1002900001960E945D1ABE016F5F7F4F83EE93E06F
:1002A0000E94E61A5C01CE0101960E94EF192B8D87
:1002B000B7FEC8C02A3009F0CCC0992061F26AEFBD
:1002C00071E0CE010E960E9422186AE072E0CE0123
:1002D0000E960E94221862E272E0CE010E960E94F3
:1002E0002218CE010E960E941E1864E372E0CE0121
:1002F0000E960E94221864E472E0CE010E960E94CF
:1003000022186BE472E0CE010E960E94221862E57C
:1003100072E0CE010E960E94221869E872E0CE01CA
:100320000E960E94221861E972E0CE010E960E949C
:10033000221868E972E0CE010E960E9422186DEA3A
:1003400072E0CE010E960E94221864ED72E0CE019A
:100350000E960E942218888999899C838B838A89AA
:100360009B89AC89BD898D839E83AF83B8878E8935
:100370009F89A88DB98D89879A87AB87BC878AE6C4
:1003800093E09A8389838A8D8D87CE0101960E949E
:10039000900068EE72E0CE010E960E9422186FEE79
:1003A00072E0CE010E960E9422186FE073E0CE013B
:1003B0000E960E940B1821E030E0B701A601CE0195
:1003C0000E960E94E8196BEE71E0CE010E960E9427
:1003D000221868EE72E0CE010E960E94221863E2A7
:1003E00073E0CE010E960E9422186BE273E0CE01FC
:1003F0000E960E940B18B801882777FD8095982FDC
:100400000E94EE1BAB01BC0122E030E0CE010E9653
:100410000E94E81968E473E0CE010E960E9422184B
:1004200060E573E0CE010E960E94221863E273E04D
:10043000CE010E960E94221863EE73E08EE494E0E3
:100440000E94FD1762ED73E083EE93E00E94731A41
:1004500005C02D3009F401CF912CFFCE61E070E092
:1004600080E090E00E943014CE010E960E94800839
:100470006B960FB6F894DEBF0FBECDBFDF91CF9164
:100480001F910F91FF90EF90DF90CF90BF90AF90B2
:100490009F9008950F9300E020E040E060E085EF3A
:1004A00093E00E94791705E62FE048EA60EC8FEEB2
:1004B00093E00E94791760E570E089EE93E00E9476
:1004C000430962ED73E083EE93E00F910C945D1AA3
:1004D00083EE93E00C94EF190F931F93CF93DF9368
:1004E000CDB7DEB762970FB6F894DEBF0FBECDBFB3
:1004F0006AE071E0CE0101960E9485176EE071E01E
:10050000CE0107960E9485178EEC93E09E878D871B
:100510008091F1039091F203A091F303B091F40361
:100520008F87988BA98BBA8B8E010F5F1F4F9E010F
:10053000295F3F4FAE01435F5F4F62E171E087E0AB
:1005400094E00E94600689EE93E00E94FF0826E096
:1005500040E855E260E070E08EE494E00E942E16E0
:1005600061E082E00E94DC1483E00E94931464EF57
:1005700071E080E090E00E94301468E573E08EE462
:1005800094E00E940B1867E074E0C8010E94D50651
:10059000B8018EE494E00E94341862960FB6F89485
:1005A000DEBF0FBECDBFDF91CF911F910F91089598
:1005B0000F9300E020E040E060E08BEF93E00E94CA
:1005C00079170F910895FB014281538164817581F0
:1005D000FC014283538364837583178216820895D6
:1005E000FB0120E080E090E06AE03191332309F1E3
:1005F00070ED730F7A3080F4DC016A9FC0016B9F4D
:10060000900D1124C097830F911D37FD9A958F3F50
:10061000910559F350F314C03E3291F4233081F028
:10062000DA01A20FB11D12968C932F5F80E090E04B
:10063000DCCF233029F4FA01858381E090E008952E
:1006400080E090E008950F9300E020E040E060E05B
:1006500081E094E00E9479170F910895AF92BF92C4
:10066000CF92DF92EF92FF920F931F93CF93DF937E
:1006700000D000D01F92CDB7DEB78C017B010E9465
:100680000114F801778366837627672776277A83B4
:100690006983085F1F4F42E050E0BE016F5F7F4FEC
:1006A000C8010E94D60A81E090E09C838B8342E0DF
:1006B00050E0BE016D5F7F4FC8010E94D60A80E006
:1006C00091E09C838B8342E050E0BE016D5F7F4FE1
:1006D000C8010E94D60A1C821B8242E050E0BE0183
:1006E0006D5F7F4FC8010E94D60A42E050E0BE0114
:1006F0006D5F7F4FC8010E94D60A42E050E0BE0104
:100700006D5F7F4FC8010E94D60A6701F6018081A4
:10071000882311F1F7016F018191811115C05601F4
:10072000AE18BF081A141B0494F4AD8241E050E0E7
:10073000BE016B5F7F4FC8010E94D60AA501B701B9
:10074000C8010E94D60A03C08E3229F7E8CF76018D
:10075000FFEFEF1AFF0ADACF1D8241E050E0BE0141
:100760006B5F7F4FC8010E94D60AE12CFF24F394EF
:10077000FC82EB8242E050E0BE016D5F7F4FC8011A
:100780000E94D60AFC82EB8242E050E0BE016D5F1F
:100790007F4FC8010E94D60A81E090E00F900F9031
:1007A0000F900F900F90DF91CF911F910F91FF90BD
:1007B000EF90DF90CF90BF90AF9008954F925F92EF
:1007C0006F927F928F929F92AF92BF92CF92DF9261
:1007D000EF92FF920F931F93CF93DF93CDB7DEB7C6
:1007E00063970FB6F894DEBF0FBECDBF7C015B01EF
:1007F0006A010E9401142B013C018701085F1F4F11
:100800004501A12CB12CC8010E94760B18161906BF
:1008100094F00E94011464197509860997098616D7
:100820009706A806B906D0F062E370E080E090E099
:100830000E943014E8CFF7014281538164817581B1
:10084000808D918DA28DB38D481759076A077B075C
:1008500041F4848D958DC59721F406C08FEF9FEFED
:10086000FAC08EEF9FEFF7C0C8010E949A0A0C975A
:10087000ECF04CE050E0BE016F5F7F4FC8010E947A
:10088000130B6C818B810E94EA199A8B898BF7017B
:10089000E680F7806A8189810E94EA19E816F906E4
:1008A00041F489899A8997FF04C009C08DEF9FEFB1
:1008B000D2C0C8010E94B40A8CEF9FEFCCC08F70E9
:1008C0009270892B31F0C8010E94B40A8BEF9FEF20
:1008D000C2C068858F810E94EA195C01009719F0F7
:1008E000E12CF12C23C0C8010E94B40A8AEF9FEFCB
:1008F000B2C041E050E0BE01635F7F4FC8010E947B
:10090000130B8D8581111AC08D858111F2CFC8011D
:100910000E94EA0AC8010E94EA0AC8010E94EA0A83
:10092000C8010E94EA0AFFEFEF1AFF0A6E818D816B
:100930000E94EA19E816F906E0F20AC08D859FEFD9
:10094000980F9D87882301F3C8010E94EA0AF6CF19
:10095000E12CF12C41E050E0BE016D5E7F4FC801FB
:100960000E94130B8B89982F907C61F4882371F07F
:100970008B899FEF980F9B8B882341F0C8010E94C1
:10098000EA0AF6CFC8010E94EA0A1B8A8B89811104
:10099000E1CF42E050E0BE01615F7F4FC8010E949D
:1009A000130B42E050E0BE01635F7F4FC8010E941D
:1009B000130BC8010E94EA0AC8010E94EA0AC80192
:1009C0000E94EA0AC8010E94EA0A42E050E0BE0121
:1009D0006F5E7F4FC8010E94130B8F859889811528
:1009E000914029F48D859E858115914019F0812CC7
:1009F000912C16C089899A898115944031F0C801DB
:100A00000E94B40A87EF9FEF26C0B6016E5F7F4F4A
:100A100044E050E0C8010E94130B81E090E01BC04D
:100A200089899A899827892798278816990638F4FA
:100A3000C8010E94EA0A2FEF821A920AF1CF8FEFC3
:100A4000E81AF80AEA14FB0409F084CFC8010E94EE
:100A5000B40A86EF9FEF63960FB6F894DEBF0FBE21
:100A6000CDBFDF91CF911F910F91FF90EF90DF905D
:100A7000CF90BF90AF909F908F907F906F905F903E
:100A80004F9008958F929F92AF92BF92CF92DF9234
:100A9000EF92FF920F931F93CF93DF9300D000D07C
:100AA00000D0CDB7DEB78C015B016A010E94F00275
:100AB0004C01009709F05DC0F801428153816481C7
:100AC00075818091030490910404A0910504B09174
:100AD0000604481759076A077B0709F44EC00E94AD
:100AE00001147801F8E0EF0EF11C6F7077277C5F3E
:100AF000C7010E94490B813009F043C08EEC93E09E
:100B00009A838983F80182819381A481B5818B8343
:100B10009C83AD83BE8345E350E0BE016F5F7F4F92
:100B2000C7010E94CA0A892B19F4812C912C1DC07F
:100B3000B501C8010E942E03892BB9F3C7010E9499
:100B4000D20A892B91F333E0A32EB12CA60168E8D9
:100B500073E1C8010E94DE034C01F1E0AF1AB10855
:100B600021F08F3F2FEF920789F3C7010E94B50A4A
:100B700008C088248394912C04C09EEF892E992468
:100B80009A94C40126960FB6F894DEBF0FBECDBF6F
:100B9000DF91CF911F910F91FF90EF90DF90CF9059
:100BA000BF90AF909F908F9008952091430422238F
:100BB00099F03FB7F89420914304213059F42DB3B4
:100BC000209341044DB320914204209524232DBB52
:100BD0003FBF02C0309341048CBD9DBD08958091FC
:100BE0004304882361F09FB7F894209143048091D7
:100BF0004104213019F48DBB9FBF08958FBF089524
:100C000044E050E0BC0181E090E00C94771144E0B6
:100C100050E0BC0185E090E00C94771144E050E096
:100C2000BC018FE090E00C9477118F929F92AF926D
:100C3000BF92CF92DF92EF92FF920F931F93CF93C9
:100C4000DF9300D0CDB7DEB74C016A01590181E3D3
:100C500094E069837A830E940F1180E590E00E94FE
:100C6000D50546E050E069817A8189E090E00E94F4
:100C70007711C60102960E940E06C80102960E94D4
:100C80000006C70102960E9407060E94EF05F501C3
:100C90004281538164817581F4014283538364836B
:100CA00075830F900F90DF91CF911F910F91FF905F
:100CB000EF90DF90CF90BF90AF909F908F9008956E
:100CC0006F927F928F929F92AF92BF92CF92DF925C
:100CD000EF92FF920F931F93CF93DF93CDB7DEB7C1
:100CE0006E970FB6F894DEBF0FBECDBF6C015B01EF
:100CF0007A014901380100E02FEF4FEF6FEFCE018D
:100D000049960E9479172EEC33E03A8329838B8D24
:100D10009C8DAD8DBE8D8B839C83AD83BE833887C8
:100D20002F83F30182819381A481B58189879A877A
:100D3000AB87BC873E872D87F40182819381A48194
:100D4000B5818F87988BA98BBA8B3C8B2B8BF70146
:100D500042815381648175814D8B5E8B6F8B788F5F
:100D6000CE0101967C018E01095F1F4F9E01235F1A
:100D70003F4FAE014D5E5F4FB501C6010E941506A3
:100D80006E960FB6F894DEBF0FBECDBFDF91CF9148
:100D90001F910F91FF90EF90DF90CF90BF90AF9099
:100DA0009F908F907F906F900895CF93DF93EC0189
:100DB0000E946F1780E590E00E94D505BE016E5F2E
:100DC0007F4F44E050E08FE090E00E94A8120E9424
:100DD000EF05CE01DF91CF9108952EEC33E0FC01B9
:100DE00031832083FB014281538164817581FC0141
:100DF000428353836483758308950F9300E020E05A
:100E000040E060E087E194E00E94791787E094E099
:100E10000F910C946F1781E086270895862F08950F
:100E2000DC01ED91FC91048CF58DE02D099591E0AC
:100E300089270895CF93DF931F92CDB7DEB76983DB
:100E4000DC01ED91FC910280F381E02D41E050E066
:100E5000BE016F5F7F4F09950F90DF91CF9108958D
:100E600021E0FC018485843009F420E0822F08957C
:100E7000FC019485FB018485981303C081E09430C4
:100E800009F480E008950F931F93CF93DF93EC0153
:100E90008A018C85843021F00E94B10E892B39F4AF
:100EA00081E090E09B838A8380E090E001C0C801EC
:100EB000DF91CF911F910F910895FC0184858430BB
:100EC00011F00C94A80F80E090E00895CF93DF9389
:100ED0001F92CDB7DEB741E050E0BE016F5F7F4F9C
:100EE000FC0184850E94480F181619061CF489819C
:100EF00090E002C08FEF9FEF0F90DF91CF910895A8
:100F0000FC0184850C94480F0F931F93CF93DF93BC
:100F10001F92CDB7DEB78C01DC01ED91FC9104800E
:100F2000F581E02D0995892B51F0BE016F5F7F4F50
:100F3000F80184850E94D30F898190E002C08FEF71
:100F40009FEF0F90DF91CF911F910F910895FC01BA
:100F500084850C940210CF92DF92EF92FF920F9350
:100F60001F93CF93DF93CDB7DEB7AF970FB6F8944B
:100F7000DEBF0FBECDBF7C018B016A01CE010196A1
:100F80000E946F17CE0109960E945C0CCE018A96D2
:100F90000E946F1767E074E0CE0184960E94ED0610
:100FA000BE016C5D7F4FCE0101960E94E302AE014F
:100FB000465D5F4FB801CE0101960E944205813027
:100FC0009105C1F4D701ED91FC910484F585E02DE4
:100FD0008EEC93E09DA38CA30CA51DA52EA53FA58B
:100FE0000EA31FA328A739A7A601BE016C5D7F4FE2
:100FF000C7010995AF960FB6F894DEBF0FBECDBFFF
:10100000DF91CF911F910F91FF90EF90DF90CF90E4
:101010000895FC01262F1382128248EE53E060E00F
:1010200070E044835583668377838AE693E09183F7
:10103000808324870895FC018485843011F00C940A
:101040005B0D80E00895DF92EF92FF920F931F9364
:10105000CF93DF93EC017B018A018C85843009F00A
:1010600045C0D12C8D2D0E945B0D811102C0DC8604
:1010700007C08B7F8831D9F3D39484E0D812F2CFA4
:101080008C85843099F120911801309119012F5FDE
:101090003F4F11F420E030EC3093190120931801F8
:1010A000409118015091190120E061E00E94AD0DBE
:1010B000B7016E5F7F4FA8018C850E94330E8111AE
:1010C00003C084E08C8712C0CE010E941B088731C8
:1010D00051F061E070E080E090E00E943014CE01B9
:1010E0000E941B08ECCF81E090E002C080E090E01D
:1010F000DF91CF911F910F91FF90EF90DF900895B6
:10110000CF92DF92EF92FF92CF93DF93EC018C8529
:10111000843049F10E948B0E0E9401146B017C0106
:10112000CE010E941B088823A1F061E070E080E0FE
:1011300090E00E9430140E9401146C197D098E0900
:101140009F09683E73408105910550F38C850E948C
:10115000830DEC85F0E0EE0FFF1FE15FFB4F118286
:10116000108284E08C87DF91CF91FF90EF90DF9029
:10117000CF900895CF93DF93EC018C858430D1F02C
:10118000CE010E941B088431A9F0882399F0883190
:1011900089F08C3169F4E881F9810480F581E02DD2
:1011A000CE01099521E0892B09F420E0822F03C0AC
:1011B00081E001C080E0DF91CF9108950F9300E0BE
:1011C00020E040E060E08DE194E00E9479170F910B
:1011D0000895CF93DF931F92CDB7DEB76983DC010B
:1011E000ED91FC910280F381E02D41E050E0BE01E1
:1011F0006F5F7F4F09950F90DF91CF910895EF9228
:10120000FF920F931F93CF93DF93CDB7DEB72D9748
:101210000FB6F894DEBF0FBECDBF7C0100E010E03A
:10122000602FCE0101960E940908CE0101960E940E
:101230001B08811116C0F7014481558120E061E04F
:10124000802F0E94AD0D802F0E94010EF701848136
:101250009581F801EE0FFF1FE15FFB4F91838083C3
:1012600005C00F5F1F4F04301105D1F62D960FB644
:10127000F894DEBF0FBECDBFDF91CF911F910F91CC
:10128000FF90EF900895FC01138212828EE893E0A4
:1012900091838083758364830895BF92CF92DF9298
:1012A000EF92FF920F931F93CF93DF93CDB7DEB7EB
:1012B0002D970FB6F894DEBF0FBECDBF8C014FE067
:1012C000C42E44E0D42EB12CE12CF12C6B2DCE0198
:1012D00001960E940908D6012D913D916D01F801FA
:1012E0008481958128173907B1F4CE0101960E94B7
:1012F0001B08843169F0CE0101960E941B088C31D5
:1013000051F4CE0101960E945D07892B99F003C02C
:10131000EE24E394F12CB394F4E0BF12D7CFEF287E
:1013200071F4D801ED91FC910480F581E02DC801A4
:10133000099505C0CE0101960E948008ECCF2D963C
:101340000FB6F894DEBF0FBECDBFDF91CF911F91D6
:101350000F91FF90EF90DF90CF90BF9008957F9214
:101360008F929F92AF92BF92CF92DF92EF92FF92B5
:101370000F931F93CF93DF93CDB7DEB72D970FB6A3
:10138000F894DEBF0FBECDBF6C015B014A010E9425
:101390004D095FE0E52E54E0F52E712C00E010E0E1
:1013A000672DCE0101960E940908F7012191319124
:1013B0007F01F601848195812817390731F4CE0128
:1013C00001960E941B088731C9F07394F4E07F12E4
:1013D000E7CFC8012D960FB6F894DEBF0FBECDBF84
:1013E000DF91CF911F910F91FF90EF90DF90CF9001
:1013F000BF90AF909F908F907F900895A401B5010A
:10140000CE0101960E944307080F191FDECFBF923D
:10141000CF92DF92EF92FF920F931F93CF93DF93C0
:10142000CDB7DEB72D970FB6F894DEBF0FBECDBF98
:101430008C016B01CB010E944D096FE0E62E64E048
:10144000F62EB12C6B2DCE0101960E940908F701F2
:10145000219131917F01F601848195812817390707
:1014600051F5CE0101960E941B08873111F08C3195
:1014700011F5CE0101960E945D07892BE1F08B8169
:101480009C81F801938382838D819E81AF81B88591
:1014900084839583A683B78349855A856B857C852C
:1014A00040875187628773878AE693E091838083C0
:1014B0008D85848708C0B394F4E0BF12C3CF64E085
:1014C000C8010E940908C8012D960FB6F894DEBF26
:1014D0000FBECDBFDF91CF911F910F91FF90EF9085
:1014E000DF90CF90BF9008950F9300E020E040E0A0
:1014F00060E083E294E00E9479170F910895DC0187
:10150000ED91FC91008CF18DE02D09942EEC33E0EF
:10151000FC0131832083FB014089518962897389F1
:10152000FC0142835383648375830895FC0184899D
:1015300095890895FC01818D928D0895CF93DF9355
:101540001F92CDB7DEB76983DC01ED91FC9102807B
:10155000F381E02D41E050E0BE016F5F7F4F0995C0
:101560000F90DF91CF9108950895CF93DF93EC0111
:10157000888D843061F00E94830DE88DF0E0EE0FDD
:10158000FF1FE15FFB4F1182108284E0888FDF91A3
:10159000CF910895FC01178A168A6E5F7F4F808D68
:1015A0000C944A10FC01808D0C949010CF93DF9323
:1015B000EC019A018E899F89AB01BC01888D0E9444
:1015C00003102E893F89280F391F3F8B2E8BDF9107
:1015D000CF9108950F931F93CF93DF931F92CDB7B1
:1015E000DEB78C01FC01818D928D892B59F041E091
:1015F00050E0BE016F5F7F4F808D0E94480F18162C
:1016000019061CF08FEF9FEF08C0F801818D928DB5
:101610000197928F818F898190E00F90DF91CF9118
:101620001F910F910895CF93DF93EC01898D9A8DCF
:10163000009719F48FEF9FEF10C04817590708F073
:10164000AC01888D0E94480F181619069CF7298D49
:101650003A8D281B390B3A8F298FDF91CF9108954E
:10166000CF93DF931F92CDB7DEB7FC01218D328D72
:10167000232B49F0BE016F5F7F4F808D0E94D30FF7
:10168000898190E002C08FEF9FEF0F90DF91CF91A3
:101690000895FF920F931F93CF93DF93EC018B017B
:1016A000888D8430E1F4F12C8F2D0E945B0D811127
:1016B00002C0F88E06C08831E1F3F39484E0F8129A
:1016C000F3CF888D843059F01D870C871A8E198EC0
:1016D00020E0A80162E00E94AD0D81E001C080E041
:1016E000DF91CF911F910F91FF9008950F931F935A
:1016F000CF93DF93CDB7DEB728970FB6F894DEBF50
:101700000FBECDBF8C01F801818D928D892B49F0E0
:10171000D801ED91FC910680F781E02DC801099573
:10172000F2CF808D0E94A80F1816190644F548E0E4
:1017300050E0BE016F5F7F4FD80158968C910E9498
:10174000480F18161906ECF4BE016F5F7F4FC801F1
:101750000E960E9495178D8190E0982F88272E81F4
:10176000820F911DF801958B848B8F8190E0982FCB
:1017700088272885820F911D928F818F02C080E07B
:1017800090E028960FB6F894DEBF0FBECDBFDF9174
:10179000CF911F910F9108958F929F92AF92BF9218
:1017A000CF92DF92EF92FF920F931F93CF93DF932D
:1017B00000D000D000D0CDB7DEB78C017B014A014C
:1017C000FC01808D843009F063C073E0A72E74E0C3
:1017D000B72EC12CD12CC5010E94A611811103C0C6
:1017E000F801C08E0AC08831D9F3FFEFCF1ADF0AA3
:1017F000B394E4E0CE16D10471F7F801808D843003
:1018000009F446C096E0EBE1F1E0DE0111960190AB
:101810000D929A95E1F7F70193819F779C839481CC
:101820009D8395819E83B7016E5F7F4F90E0982FD7
:10183000882744E050E0845F9B4F0E947711F801B5
:10184000808D90E00496F82EEE24692DC701409615
:101850000E94ED10682DC70141960E94ED10F8011D
:10186000808D90E0982F882746E050E0BE016F5FA2
:101870007F4F8A5F9B4F0E947711F801128E118E65
:1018800020E8A40162E0808D0E94AD0D81E001C0DE
:1018900080E026960FB6F894DEBF0FBECDBFDF9175
:1018A000CF911F910F91FF90EF90DF90CF90BF905D
:1018B000AF909F908F900895CF93DF93EC011B82A0
:1018C0001A8248EE53E060E070E04C835D836E83E3
:1018D0007F8388E993E099838883CE010E960E94E6
:1018E0006F1784E0888FDF91CF910895CF92DF92B8
:1018F000EF92FF920F931F93CF93DF93CDB7DEB795
:10190000AF970FB6F894DEBF0FBECDBF7C018B0141
:101910006A01CE0101960E946F17CE0109960E94BE
:101920005C0CCE018A960E946F1767E074E0CE01CE
:1019300084960E94ED06BE016C5D7F4FCE0101963C
:101940000E94E302AE01465D5F4FB801CE010196F1
:101950000E94420581309105C1F4D701ED91FC91BF
:101960000088F189E02D8EEC93E09DA38CA30CA55B
:101970001DA52EA53FA50EA31FA328A739A7A60125
:10198000BE016C5D7F4FC7010995AF960FB6F89405
:10199000DEBF0FBECDBFDF91CF911F910F91FF90A2
:1019A000EF90DF90CF9008950F9300E020E040E0AB
:1019B00060E089E294E00E9479170F910895CF9238
:1019C000DF92EF92FF920F9330E0C12CF2E1DF2E15
:1019D000FAE7EF2EF12C4C155D056E057F0540F4FE
:1019E000F694E794D794C7943F5F3630A1F737E079
:1019F00041E04327211102C050E701C050E5242FE8
:101A000030E03595279523700C70202B252BFC0199
:101A10002083417041830F91FF90EF90DF90CF9032
:101A2000089590E0982F882744E050E0845F9B4F12
:101A30000C947711282F30E02C5F3F4F922F88278E
:101A4000860F971F0C94A61162E070E00C941A0D9B
:101A5000FB01282F30E02C5F3F4F922F8827642F07
:101A60008E0F9F1F0C94ED10CF93DF93C82FD62FAE
:101A7000472F64E070E00E94280D4D2F65E070E074
:101A80008C2FDF91CF910C94280D462F62E070E0EF
:101A90000C94280DCF93DF93C82FD62F472F60E1EA
:101AA00070E00E94280D4D2F61E170E08C2FDF91D6
:101AB000CF910C94280D0F931F93CF93DF9300D0F9
:101AC0001F92CDB7DEB7182F00E021E040E059E0CB
:101AD0006DE370E0CE0101960E94DF0C89819A814E
:101AE0000E94D50563E070E0812F0E941A0D8B8360
:101AF0000E94EF058B810F900F900F90DF91CF9197
:101B00001F910F9108950F931F93CF93DF9300D0F0
:101B1000CDB7DEB7182F00E021E040E059E06DE3DB
:101B200070E0CE0101960E94DF0C89819A810E94AB
:101B3000D50540E150E0612F81E394E00E947013ED
:101B40006FEF812F0E94450D0E94EF050F900F90BF
:101B5000DF91CF911F910F910895CF92DF92EF9275
:101B6000FF920F931F93CF93DF9300D0CDB7DEB7D3
:101B7000182FD62E7A01C22E8FEF860F8530A8F54A
:101B8000812F0E94830D00E021E040E059E06DE3E9
:101B900070E0CE0101960E94DF0C89819A810E943B
:101BA000D5054D2D4C2960E070E0812F0E94280D55
:101BB000E114F10411F0B7010AC060912F04709193
:101BC00030046F5F7F4F7093300460932F04812F38
:101BD0000E94340D41E050E0612F81E394E00E94C7
:101BE00070130E94EF0581E001C080E00F900F901C
:101BF000DF91CF911F910F91FF90EF90DF90CF90E9
:101C000008950F931F93CF93DF9300D0CDB7DEB726
:101C1000182F00E021E040E059E06DE370E0CE01D4
:101C200001960E94DF0C89819A810E94D50563E0AC
:101C300070E0812F0E941A0D833121F00E94EF0580
:101C400080E00AC042E050E0612F81E394E00E940E
:101C500070130E94EF0581E00F900F90DF91CF91FC
:101C60001F910F910895CF92DF92EF92FF920F9301
:101C70001F93CF93DF9300D0CDB7DEB7182F7B0132
:101C80006A01FB0180818F3F51F481818F3F99F47C
:101C900082818F3F81F483818F3F69F430C081114D
:101CA0000AC0FB018181811106C08281811103C0BC
:101CB0008381882321F1C114D10409F100E021E0DE
:101CC00040E059E06DE370E0CE0101960E94DF0C28
:101CD00089819A810E94D505B701812F0E94110D3B
:101CE000B601812F0E944A0D44E050E0612F81E34C
:101CF00094E00E9470130E94EF0581E001C080E033
:101D00000F900F90DF91CF911F910F91FF90EF9067
:101D1000DF90CF9008950F931F93CF93DF9300D060
:101D2000CDB7DEB7182F00E021E040E059E06DE3C9
:101D300070E0CE0101960E94DF0C89819A810E9499
:101D4000D50548E050E0612F81E394E00E947013D4
:101D50000E94EF050F900F90DF91CF911F910F918F
:101D60000895BF92CF92DF92EF92FF920F931F934D
:101D7000CF93DF9300D01F92CDB7DEB7B82E6B01A3
:101D80007A01413088E0580718F0E12C98E0F92EEC
:101D900000E021E040E059E06DE370E0CE01019603
:101DA0000E94DF0C89819A810E94D5056B2D81E309
:101DB00094E00E94DE118C0163E070E08B2D0E94A4
:101DC0001A0D8B830E94EF058B81873111F08C31C6
:101DD00031F40E94B6130E151F05D0F202C0E12C9B
:101DE000F12C00E021E040E059E06DE370E0CE012D
:101DF00001960E94DF0C89819A810E94D505970186
:101E0000A6016B2D81E394E00E949D1240E250E018
:101E10006B2D81E394E00E9470138B2D0E94240DA2
:101E200084FD22C063E070E08B2D0E941A0D8111A9
:101E300008C00E94EF058B2D0E94830D80E090E08A
:101E40001AC00E94EF050E94B61300E021E040E0B6
:101E500059E06DE370E0CE0101960E94DF0C8981AC
:101E60009A810E94D505D9CF60E18B2D0E94450D46
:101E70000E94EF05C7010F900F900F90DF91CF9157
:101E80001F910F91FF90EF90DF90CF90BF9008953A
:101E9000AF92BF92CF92DF92EF92FF920F931F9378
:101EA000CF93DF9300D0CDB7DEB7182F5B016A0167
:101EB00000E021E040E059E06DE370E0CE010196E2
:101EC0000E94DF0C89819A810E94D505612F81E3F0
:101ED00094E00E9412127C010097A1F463E070E08C
:101EE000812F0E941A0D843119F1882309F121E014
:101EF00030E08C3111F420E030E0EE24FF24E21ACF
:101F0000F30A16C0C816D9060CF476011E141F0475
:101F10007CF400E09701A501612F81E394E00E9429
:101F2000201340E450E0612F81E394E00E9470139D
:101F30000E94EF05C7010F900F90DF91CF911F9185
:101F40000F91FF90EF90DF90CF90BF90AF900895EA
:101F50000F931F93CF93DF9300D000D0CDB7DEB7A0
:101F6000182F00E021E040E059E06DE370E0CE0181
:101F700001960E94DF0C89819A810E94D505612F0C
:101F800081E394E00E9412128B839C830E94EF05F0
:101F90008B819C810F900F900F900F90DF91CF91CC
:101FA0001F910F910895EF92FF920F931F93CF937C
:101FB000DF9300D0CDB7DEB7182F7B0100E021E022
:101FC00040E059E06DE370E0CE0101960E94DF0C25
:101FD00089819A810E94D50501E021E030E0A701C6
:101FE000612F81E394E00E9420130E94EF0581E0BD
:101FF00090E00F900F90DF91CF911F910F91FF9084
:10200000EF90089508959F92AF92BF92CF92DF9282
:10201000EF92FF920F931F93CF93DF9300D0CDB732
:10202000DEB7982E6B015A01790100E021E040E013
:1020300059E06DE370E0CE0101960E94DF0C8981CA
:102040009A810E94D505692D81E394E00E94DE11FA
:102050008E159F0530F4692D81E394E00E94DE1116
:102060007C0187019501A601692D81E394E00E941E
:102070002E120E94EF05C7010F900F90DF91CF91B4
:102080001F910F91FF90EF90DF90CF90BF90AF9096
:102090009F900895CF92DF92EF92FF920F931F933C
:1020A000CF93DF9300D0CDB7DEB7182F7B016A0145
:1020B000FB018081811109C08181811106C082816B
:1020C000811103C083818823F1F0C114D104D9F0B8
:1020D00000E021E040E059E06DE370E0CE010196C0
:1020E0000E94DF0C89819A810E94D505B701812F5A
:1020F0000E94110DB601812F0E944A0D0E94EF052A
:1021000081E090E002C080E090E00F900F90DF91BE
:10211000CF911F910F91FF90EF90DF90CF90089596
:102120000F931F93CF93DF9300D0CDB7DEB7182F57
:1021300000E021E040E059E06DE370E0CE0101965F
:102140000E94DF0C89819A810E94D50540E250E00F
:10215000612F81E394E00E947013812F0E94240D6F
:1021600084FD21C0812F0E94240D83FF09C068E1F6
:10217000812F0E94450D0E94EF0580E090E01BC07A
:102180000E94EF050E94B61300E021E040E059E014
:102190006DE370E0CE0101960E94DF0C89819A8187
:1021A0000E94D505DACF60E1812F0E94450D0E9483
:1021B000EF0581E090E00F900F90DF91CF911F919C
:1021C0000F9108958EBD00000DB407FEFDCF8EB5B2
:1021D00008952A9808952A9A08951F93CF93DF931C
:1021E00000D0CDB7DEB7182F6A8399830E94E9101B
:1021F00080EF0E94E2109981892F0E94E210812FC6
:102200000E94E2106A81862F0E94E2100E94EB1069
:1022100081E00F900F90DF91CF911F910895CF93A0
:10222000DF93EC016CE271E080E090E00E943014FA
:102230000E948013229A80914304882399F09FB7CB
:10224000F89480914304813059F48DB38093410414
:102250002DB380914204809582238DBB9FBF02C025
:102260009093410480E58CBD1DBC60E880E090E067
:102270000E94ED1065E58BE190E00E94ED1065E5B0
:102280008AE190E00E94ED1080914304882361F080
:102290009FB7F8942091430480914104213019F4B0
:1022A0008DBB9FBF01C08FBF80E090E4998388837E
:1022B00080E090E69987888780E098E49B838A8312
:1022C00080E098E69B878A8780E090E59D838C83F9
:1022D00080E090E79D878C8780E098E59F838E83E0
:1022E00080E098E79F878E87DF91CF910895CF9206
:1022F000DF92EF92FF920F931F93CF93DF93EC0146
:102300007A018B016C01C40ED51ECC15DD05A1F040
:102310000E94E91080EF0E94E2108D2F0E94E210CF
:102320008C2F0E94E2102196F80181918F010E946A
:10233000E2100E94EB10E9CFC701DF91CF911F910E
:102340000F91FF90EF90DF90CF9008951F93CF9360
:10235000DF931F92CDB7DEB7182F99830E94E91043
:102360008FE00E94E2109981892F0E94E210812F54
:102370000E94E21080E00E94E21089830E94EB102C
:1023800089810F90DF91CF911F9108951F93CF9373
:10239000DF93182F60E270E00E941A0DC82FD0E082
:1023A00061E270E0812F0E941A0DDC2FCC279E0184
:1023B000282BC901DF91CF911F910895FF920F93B0
:1023C0001F93CF93DF93F62EC0E0D0E08F2D0E94B5
:1023D000C6118C01009721F08F2D0E94C611EC01CF
:1023E000C017D10799F7CE01DF91CF911F910F91BF
:1023F000FF9008951F93CF93DF93182F66E270E04C
:102400000E941A0DC82FD0E067E270E0812F0E9471
:102410001A0DDC2FCC279E01282BC901DF91CF910B
:102420001F910895FF920F931F93CF93DF93F62E82
:10243000C0E0D0E08F2D0E94FA118C01009721F0AE
:102440008F2D0E94FA11EC01C017D10799F7CE0128
:10245000DF91CF911F910F91FF9008956F927F921E
:102460009F92AF92BF92CF92DF92EF92FF920F9323
:102470001F93CF93DF931F92CDB7DEB7D82E962E42
:102480003A01590164E270E0892D99830E941A0D86
:10249000E82EF12C65E270E0892D0E941A0DFE2CC9
:1024A000EE24E82AE60CF71C970137706D2C998111
:1024B000792E690C711C690C711CD301ED91FC9192
:1024C000E20FF31FC901800F911F81309840A0F0E7
:1024D000C12C48E0D42EC21AD30AA601B501CF01FF
:1024E0000E947711A8014C195D09B5016C0D7D1D85
:1024F000F3018081918103C0A801B501CF010E9441
:102500007711E00EF11E4F2D64E270E0892D0E94DC
:10251000280D4E2D65E270E0892D0F90DF91CF914F
:102520001F910F91FF90EF90DF90CF90BF90AF90F1
:102530009F907F906F900C94280D0F931F938901AB
:102540009A0140E050E00E942E121F910F910895D1
:10255000CF92DF92EF92FF920F931F93CF93DF936F
:10256000EC017A018B016C01C40ED51ECC15DD0582
:10257000A9F00E94E9108FE00E94E2108D2F0E94C6
:10258000E2108C2F0E94E210219680E00E94E2105F
:10259000F80181938F010E94EB10E8CFC701DF9112
:1025A000CF911F910F91FF90EF90DF90CF90089502
:1025B000AF92BF92CF92DF92EF92FF920F931F9351
:1025C000CF93DF9300D0CDB7DEB75A83498359014B
:1025D000E981FA81F7707C01E60EF11CE60EF11C30
:1025E000D70118968D919C9119978E0F9F1F980176
:1025F0002E0F3F1F2130384098F0C12C68E0D62EB6
:10260000CE1ADF0AA601B5010E94A812A8014C1932
:102610005D09B5016C0D7D1DF7018085918502C0B6
:10262000A801B5010F900F90DF91CF911F910F91ED
:10263000FF90EF90DF90CF90BF90AF900C94A812D6
:102640008F929F92AF92BF92CF92DF92EF92FF92C2
:102650000F931F93CF93DF936C01962E5A0179014C
:10266000802E68E270E0892D0E941A0DC82FD0E0FC
:1026700069E270E0892D0E941A0DDC2FCC27C82B4F
:1026800087019501AE01692DC6010E94D812811003
:102690001AC0CE0DDF1D4D2F68E270E0892D0E941B
:1026A000280D4C2F69E270E0892DDF91CF911F91A9
:1026B0000F91FF90EF90DF90CF90BF90AF909F90E1
:1026C0008F900C94280DDF91CF911F910F91FF9067
:1026D000EF90DF90CF90BF90AF909F908F90089534
:1026E000CF93C62F61E070E08C2F0E94280D61E02F
:1026F00070E08C2F0E941A0D8111F9CFCF910895AF
:10270000CF93CFB7F89480914404811127C0EAE9B0
:10271000F0E08491E6E8F0E09491E82FF0E0EE0F2D
:10272000FF1FE255FF4FA591B4918C91892321F4AD
:1027300061E08AE00E94151561E08AE00E94DC14E5
:102740008CB580618CBD8CB580648CBD61E08DE002
:102750000E94DC1461E08BE00E94DC148091440450
:102760008F5F80934404CFBFCF91089508951F9247
:102770000F920FB60F9211242F933F938F939F9335
:10278000AF93BF938091460490914704A091480471
:10279000B09149043091450423E0230F2D3720F4F4
:1027A0000196A11DB11D05C026E8230F0296A11DAB
:1027B000B11D209345048093460490934704A09351
:1027C0004804B093490480914A0490914B04A0912D
:1027D0004C04B0914D040196A11DB11D80934A0493
:1027E00090934B04A0934C04B0934D04BF91AF91D0
:1027F0009F918F913F912F910F900FBE0F901F903F
:1028000018952FB7F8946091460470914704809111
:102810004804909149042FBF08953FB7F8948091E0
:102820004A0490914B04A0914C04B0914D0426B5FC
:10283000A89B05C02F3F19F00196A11DB11D3FBFF8
:102840006627782F892F9A2F620F711D811D911D88
:1028500042E0660F771F881F991F4A95D1F70895A8
:10286000CF92DF92EF92FF92CF93DF936B017C01C7
:102870000E940D14EB01C114D104E104F10489F0AC
:102880000E94B6130E940D146C1B7D0B683E7340B2
:1028900090F381E0C81AD108E108F108C851DC4F73
:1028A000EACFDF91CF91FF90EF90DF90CF90089526
:1028B000789484B5826084BD84B5816084BD85B51B
:1028C000826085BD85B5816085BDEEE6F0E08081E2
:1028D00081608083E1E8F0E0108280818260808303
:1028E000808181608083E0E8F0E080818160808386
:1028F000E1EBF0E0808184608083E0EBF0E08081B8
:1029000081608083EAE7F0E0808184608083808159
:102910008260808380818160808380818068808301
:102920001092C100089580931A0108958E3008F026
:102930008E50877020911A0190E4299F90011124F4
:10294000822B80937C0080917A00806480937A004F
:1029500080917A0086FDFCCF8091780020917900EB
:1029600090E0922B0895833081F028F4813099F023
:102970008230A1F008958730A9F08830B9F0843012
:10298000D1F4809180008F7D03C0809180008F778B
:1029900080938000089584B58F7702C084B58F7DC1
:1029A00084BD08958091B0008F7703C08091B000FE
:1029B0008F7D8093B0000895CF93DF9390E0FC016A
:1029C000E458FF4F2491FC01E057FF4F8491882386
:1029D00049F190E0880F991FFC01E255FF4FA59146
:1029E000B4918C559F4FFC01C591D4919FB7611153
:1029F00008C0F8948C91209582238C93888182233F
:102A00000AC0623051F4F8948C91322F30958323B0
:102A10008C938881822B888304C0F8948C91822BBC
:102A20008C939FBFDF91CF9108950F931F93CF9306
:102A3000DF931F92CDB7DEB7282F30E0F901E859B8
:102A4000FF4F8491F901E458FF4F1491F901E057C9
:102A5000FF4F04910023C9F0882321F069830E946D
:102A6000B3146981E02FF0E0EE0FFF1FEC55FF4F2C
:102A7000A591B4919FB7F8948C91611103C0109502
:102A8000812301C0812B8C939FBF0F90DF91CF9149
:102A90001F910F910895FC01818D228D90E0805C43
:102AA0009F4F821B91098F7399270895FC01918D87
:102AB000828D981731F0828DE80FF11D858D90E0A1
:102AC00008958FEF9FEF0895FC01918D828D9817E7
:102AD00061F0828DDF01A80FB11D5D968C91928D02
:102AE0009F5F9F73928F90E008958FEF9FEF0895FF
:102AF00088EE96E1892B49F080E090E0892B29F05F
:102B00000E94E81681110C9400000895FC01848D48
:102B1000DF01A80FB11DA35ABF4F2C91848D90E007
:102B200001968F739927848FA689B7892C93A089E2
:102B3000B1898C9180648C93938D848D981306C099
:102B40000288F389E02D80818F7D80830895CF9363
:102B5000DF93EC01888D8823C9F0EA89FB898081A5
:102B600085FD05C0A889B9898C9186FD0FC00FB677
:102B700007FCF5CF808185FFF2CFA889B9898C91B8
:102B800085FFEDCFCE010E948615E7CFDF91CF9173
:102B90000895CF92DF92FF920F931F93CF93DF930D
:102BA0001F92CDB7DEB76C0181E0D60158968C93A9
:102BB00058975B969C915B975C968C915C97981369
:102BC00007C05096ED91FC915197808185FD2EC0F4
:102BD000F601038D10E00F5F1F4F0F731127F02ECA
:102BE000F601848DF81211C00FB607FCF9CFD6019B
:102BF0005096ED91FC915197808185FFF1CFC601F0
:102C000069830E9486156981EBCF838DE80FF11DE2
:102C1000E35AFF4F6083D6015B960C935B97529605
:102C2000ED91FC915397808180620CC0D60156963D
:102C3000ED91FC91579760835096ED91FC915197DF
:102C400080818064808381E090E00F90DF91CF915C
:102C50001F910F91FF90DF90CF900895BF92CF9278
:102C6000DF92EF92FF92CF93DF93EC016A017B0139
:102C7000B22EE889F98982E08083411581EE5807F8
:102C800061057105A1F060E079E08DE390E0A701B6
:102C900096010E94091D215031094109510956959B
:102CA000479537952795211580E1380798F0E889F1
:102CB000F989108260E874E88EE190E0A70196013E
:102CC0000E94091D21503109410951095695479526
:102CD00037952795EC85FD853083EE85FF8520832C
:102CE000188EEC89FD89B082EA89FB898081806138
:102CF0008083EA89FB89808188608083EA89FB89F7
:102D0000808180688083EA89FB8980818F7D8083D0
:102D1000DF91CF91FF90EF90DF90CF90BF9008951B
:102D20001F920F920FB60F9211242F938F939F93A0
:102D3000EF93FF93E0915E04F0915F048081E09156
:102D40006404F091650482FD12C090818091670453
:102D50008F5F8F7320916804821751F0E0916704B0
:102D6000F0E0E25BFB4F958F8093670401C08081A8
:102D7000FF91EF919F918F912F910F900FBE0F9028
:102D80001F9018951F920F920FB60F9211242F9338
:102D90003F934F935F936F937F938F939F93AF93E3
:102DA000BF93EF93FF938EE494E00E948615FF910A
:102DB000EF91BF91AF919F918F917F916F915F91B3
:102DC0004F913F912F910F900FBE0F901F9018952C
:102DD0008EE494E00E944B1521E0892B09F420E059
:102DE000822F0895109251041092500488EE93E0BF
:102DF000A0E0B0E08093520490935304A093540455
:102E0000B09355048EEB93E090934F0480934E045F
:102E100085EC90E090935B0480935A0484EC90E0FE
:102E200090935D0480935C0480EC90E090935F0449
:102E300080935E0481EC90E0909361048093600441
:102E400082EC90E0909363048093620486EC90E0BF
:102E50009093650480936404109267041092680450
:102E60001092690410926A040895AF92BF92CF92B3
:102E7000DF92EF92FF920F931F93CF93DF936C013A
:102E80007B01C0E0D0E000E010E0F601EC0FFD1F98
:102E90004AE050E06281C7010E94F6185C016EE2D0
:102EA000C7010E940D188A0D9B1D080F191F21963E
:102EB000C330D10551F74AE050E0F6016581C70102
:102EC0000E94F618800F911FDF91CF911F910F91F3
:102ED000FF90EF90DF90CF90BF90AF9008952EECD1
:102EE00033E0FC0131832083128213821482158225
:102EF00008950F93FC018EEC93E0918380836283AD
:102F00004383248305830F9108952EEC33E0FC0165
:102F100031832083FB014081518162817381FC01F7
:102F200042835383648375830895FB0140815181FB
:102F300062817381FC0142835383648375830895A6
:102F40008EEC93E09093EC048093EB041092ED04EC
:102F50001092EE041092EF041092F0040895089578
:102F60000E9458140E94AF170E946C02C8E7D5E176
:102F70000E94DB002097E1F30E947815F9CFCF92F1
:102F8000DF92EF92FF920F931F93CF93DF937C0119
:102F90006A01EB0100E010E00C151D0571F069916C
:102FA000D701ED91FC910190F081E02DC7010995C9
:102FB000892B19F00F5F1F4FEFCFC801DF91CF9121
:102FC0001F910F91FF90EF90DF90CF9008956115C2
:102FD000710581F0DB010D900020E9F7AD01415052
:102FE0005109461B570BDC01ED91FC910280F381E6
:102FF000E02D099480E090E00895DC01ED91FC91D2
:10300000DB0114964D915C9115976D917C91028036
:10301000F381E02D09940C94E717DC01ED91FC910C
:103020000190F081E02D0994DB01ED91FC91119765
:103030000190F081E02DBC01CD01099460ED73E0B9
:103040000C94E7170F931F93CF93DF93EC010E942B
:10305000E7178C01CE010E941E18800F911FDF918F
:10306000CF911F910F9108950F931F93CF93DF93EB
:10307000EC010E9414188C01CE010E941E18800FD2
:10308000911FDF91CF911F910F9108958F929F9281
:10309000AF92BF92CF92DF92EF92FF920F931F9366
:1030A000CF93DF93CDB7DEB7A1970FB6F894DEBF0D
:1030B0000FBECDBF7C01C42EE52FCB01D22E19A2AD
:1030C00021E02D1510F02AE0D22E8E010F5D1F4F4A
:1030D0008D2C912CA12CB12C6C2D7E2FA50194014F
:1030E0000E94091D8C2DD29E8019112401501109B6
:1030F0008A3014F4805D01C0895CF8018083211559
:1031000031054105510521F0C22EE32FCA01E4CF5C
:10311000B801C7010E94E717A1960FB6F894DEBF69
:103120000FBECDBFDF91CF911F910F91FF90EF9018
:10313000DF90CF90BF90AF909F908F900895CF92E7
:10314000DF92EF92FF920F931F93CF93DF93EC01E7
:103150006A017B012115310579F4E881F98101903B
:10316000F081E02D642FDF91CF911F910F91FF909F
:10317000EF90DF90CF9009942A303105E9F477FF82
:103180001AC06DE20E940D188C0144275527BA0120
:103190004C195D096E097F092AE0CE010E9446188C
:1031A000800F911FDF91CF911F910F91FF90EF90B2
:1031B000DF90CF9008952AE0B701A601CE01DF91FC
:1031C000CF911F910F91FF90EF90DF90CF900C94D3
:1031D00046182115310541F4DC01ED91FC91019077
:1031E000F081E02D642F09940C9446189A01462F23
:1031F00050E060E070E00C94E9184F925F926F929B
:103200007F928F929F92AF92BF92CF92DF92EF9276
:10321000FF920F931F93CF93DF93EC016A017B0121
:10322000B22E9A01AB01C701B6010E94051D882389
:1032300019F063ED73E027C026013701E89477F8B1
:103240002FEF3FEF4FE75FE7C301B2010E94051D7B
:1032500081110DC02FEF3FEF4FE75FE7C301B201D0
:103260000E944F1B18161CF467ED73E00CC02FEF83
:103270003FEF4FE75FE4C701B6010E949E1C18169E
:10328000ACF46BED73E0CE01DF91CF911F910F9104
:10329000FF90EF90DF90CF90BF90AF909F908F9076
:1032A0007F906F905F904F900C94E7172FEF3FEF58
:1032B0004FE75FECC701B6010E944F1B87FDE1CFCE
:1032C00020E030E0A901C701B6010E944F1B87FF33
:1032D0000AC06DE2CE010E940D188C01F7FAF0943D
:1032E000F7F8F09402C000E010E0A12C60E070E07C
:1032F00080E09FE3AB1441F020E030E040E251E495
:103300000E94531BA394F6CF9B01AC01C701B601E9
:103310000E94EB1A6B017C010E94C01B2B013C0137
:103320000E94EC1B9B01AC01C701B6010E94EA1A86
:103330006B017C012AE0B301A201CE010E94461874
:10334000080F191FBB2039F06FED73E0CE010E940A
:10335000E717080F191F7B2C772041F120E030E0A0
:1033600040E251E4C701B6010E94A21C6B017C013E
:103370000E94BB1B4B01AA2497FCA094BA2C2AE004
:1033800030E0B501A401CE010E949F18080F191F5B
:10339000C501B4010E94EE1B9B01AC01C701B6013F
:1033A0000E94EA1A6B017C017A94D6CFC801DF91A2
:1033B000CF911F910F91FF90EF90DF90CF90BF9032
:1033C000AF909F908F907F906F905F904F900895F7
:1033D0000C94FD1870E09B01382BC9010895FC0185
:1033E000808191810C94C91DCF93DF93EC0188817A
:1033F0009981009711F00E94C91D198218821D82BF
:103400001C821B821A82DF91CF9108950F931F9324
:10341000CF93DF93EC018B016F5F7F4F88819981A0
:103420000E94581E009731F0998388831B830A837A
:1034300081E001C080E0DF91CF911F910F9108954D
:10344000CF93DF93EC0188819981892B29F08A81C0
:103450009B818617970760F4CE010E94061A882385
:1034600041F08C819D81892B19F4E881F9811082CA
:1034700081E0DF91CF910895EF92FF920F931F9318
:10348000CF93DF93EC017B018A01BA010E94201ADD
:10349000811104C0CE010E94F41907C01D830C8362
:1034A000B701888199810E942B1FCE01DF91CF91B6
:1034B0001F910F91FF90EF900895FC0111821082EF
:1034C00013821282158214826115710559F0FB0175
:1034D00001900020E9F7AF0141505109461B570BFD
:1034E0000C943C1A0895CF93DF93EC01611571059C
:1034F00061F0FB0101900020E9F7AF014150510953
:10350000461B570B0E943C1A02C00E94F419CE01C0
:10351000DF91CF910895EF92FF920F931F93CF9376
:10352000DF93EC017B010C811D816115710511F4A4
:1035300080E016C04115510591F0040F151FB80128
:103540000E94201A8823A1F3288139818C819D81D2
:10355000B701820F931F0E942B1F1D830C8381E0F4
:10356000DF91CF911F910F91FF90EF900895CF932E
:10357000DF9300D0CDB7DEB769831A8241E050E017
:10358000BE016F5F7F4F0E948B1A0F900F90DF91EB
:10359000CF910895CF93DF93FC01848195814817E3
:1035A000590778F4C081D181FB0160817181CE011E
:1035B000840F951F0E94321F009719F08C1B9D0BE2
:1035C00002C08FEF9FEFDF91CF91089540E050E070
:1035D0000C94CA1A5058BB27AA270ED075C166D1C1
:1035E00030F06BD120F031F49F3F11F41EF45BC139
:1035F0000EF4E095E7FB51C1E92F77D180F3BA17BC
:10360000620773078407950718F071F49EF58FC160
:103610000EF4E0950B2EBA2FA02D0B01B9019001ED
:103620000C01CA01A0011124FF27591B99F0593F31
:1036300050F4503E68F11A16F040A22F232F342F79
:103640004427585FF3CF469537952795A795F040C7
:103650005395C9F77EF41F16BA0B620B730B840BDC
:10366000BAF09150A1F0FF0FBB1F661F771F881F94
:10367000C2F70EC0BA0F621F731F841F48F48795EC
:1036800077956795B795F7959E3F08F0B3CF9395DB
:10369000880F08F09927EE0F979587950895D9D050
:1036A00008F481E008950CD00FC107D140F0FED09E
:1036B00030F021F45F3F19F0F0C0511139C1F3C06F
:1036C00014D198F39923C9F35523B1F3951B550BE6
:1036D000BB27AA2762177307840738F09F5F5F4FE5
:1036E000220F331F441FAA1FA9F333D00E2E3AF026
:1036F000E0E830D091505040E695001CCAF729D040
:10370000FE2F27D0660F771F881FBB1F261737078E
:103710004807AB07B0E809F0BB0B802DBF01FF27BE
:1037200093585F4F2AF09E3F510568F0B6C000C124
:103730005F3FECF3983EDCF3869577956795B795F8
:10374000F7959F5FC9F7880F911D9695879597F913
:103750000895E1E0660F771F881FBB1F621773078C
:103760008407BA0720F0621B730B840BBA0BEE1FA1
:1037700088F7E095089504D06894B111D9C00895F0
:10378000BCD088F09F5790F0B92F9927B751A0F07F
:10379000D1F0660F771F881F991F1AF0BA95C9F7E5
:1037A00012C0B13081F0C3D0B1E00895C0C0672F1E
:1037B000782F8827B85F39F0B93FCCF38695779595
:1037C0006795B395D9F73EF490958095709561957E
:1037D0007F4F8F4F9F4F0895E89409C097FB3EF4A9
:1037E00090958095709561957F4F8F4F9F4F99234E
:1037F000A9F0F92F96E9BB279395F69587957795CC
:103800006795B795F111F8CFFAF4BB0F11F460FF8B
:103810001BC06F5F7F4F8F4F9F4F16C0882311F0E3
:1038200096E911C0772321F09EE8872F762F05C0F7
:10383000662371F096E8862F70E060E02AF09A9592
:10384000660F771F881FDAF7880F9695879597F987
:103850000895990F0008550FAA0BE0E8FEEF161621
:103860001706E807F907C0F012161306E407F50774
:1038700098F0621B730B840B950B39F40A2661F0E8
:10388000232B242B252B21F408950A2609F4A1408B
:10389000A6958FEF811D811D089597F99F6780E898
:1038A00070E060E008959FEF80EC089500240A9492
:1038B0001616170618060906089500240A9412160B
:1038C0001306140605060895092E0394000C11F43E
:1038D000882352F0BB0F40F4BF2B11F460FF04C0EB
:1038E0006F5F7F4F8F4F9F4F089557FD9058440F44
:1038F000551F59F05F3F71F04795880F97FB991F4F
:1039000061F09F3F79F0879508951216130614060B
:10391000551FF2CF4695F1DF08C016161706180698
:10392000991FF1CF86957105610508940895E89473
:10393000BB2766277727CB0197F908958ADF08F41C
:103940008FEF08950BD0C0CFB1DF28F0B6DF18F0AD
:10395000952309F0A2CFA7CF1124EACFC6DFA0F3A9
:10396000959FD1F3950F50E0551F629FF001729F14
:10397000BB27F00DB11D639FAA27F00DB11DAA1F33
:10398000649F6627B00DA11D661F829F2227B00D80
:10399000A11D621F739FB00DA11D621F839FA00D0B
:1039A000611D221F749F3327A00D611D231F849F5B
:1039B000600D211D822F762F6A2F11249F575040B2
:1039C0008AF0E1F088234AF0EE0FFF1FBB1F661F4D
:1039D000771F881F91505040A9F79E3F510570F006
:1039E0005CCFA6CF5F3FECF3983EDCF386957795EE
:1039F0006795B795F795E7959F5FC1F7FE2B880F01
:103A0000911D9695879597F9089523DF880B990B5B
:103A10000895A1E21A2EAA1BBB1BFD010DC0AA1F0F
:103A2000BB1FEE1FFF1FA217B307E407F50720F027
:103A3000A21BB30BE40BF50B661F771F881F991FA2
:103A40001A9469F760957095809590959B01AC01EB
:103A5000BD01CF010895EE0FFF1F0590F491E02DF9
:103A60000994CF93DF938230910510F482E090E0C7
:103A7000E091F304F091F40420E030E0A0E0B0E045
:103A8000309739F14081518148175907B8F04817EC
:103A9000590771F482819381109729F013969C93B2
:103AA0008E9312972CC09093F4048093F30427C054
:103AB0002115310531F04217530718F0A901DB0138
:103AC00001C0EF019A01BD01DF010280F381E02D09
:103AD000D7CF21153105F9F0281B390B24303105DA
:103AE00080F48A819B816115710521F0FB0193832C
:103AF000828304C09093F4048093F304FE01329611
:103B000044C0FE01E20FF31F8193919322503109CB
:103B1000398328833AC02091F1043091F204232B99
:103B200041F420910201309103013093F20420937B
:103B3000F10420910001309101012115310541F47A
:103B40002DB73EB74091040150910501241B350B60
:103B5000E091F104F091F204E217F307A0F42E1BB8
:103B60003F0B2817390778F0AC014E5F5F4F2417E1
:103B7000350748F04E0F5F1F5093F2044093F10455
:103B80008193919302C0E0E0F0E0CF01DF91CF910B
:103B90000895CF93DF93009709F487C0FC01329713
:103BA00013821282C091F304D091F404209781F41F
:103BB00020813181280F391F8091F1049091F20406
:103BC0008217930779F5F093F204E093F1046DC046
:103BD000DE0120E030E0AE17BF0750F412964D91A1
:103BE0005C9113979D014115510509F1DA01F3CF5D
:103BF000B383A28340815181840F951F8A179B074D
:103C000071F48D919C911197840F951F0296918369
:103C1000808312968D919C911397938382832115B3
:103C2000310529F4F093F404E093F3043EC0D90184
:103C30001396FC93EE9312974D915D91A40FB51FCF
:103C4000EA17FB0779F480819181840F951F029612
:103C5000D90111969C938E938281938113969C93A4
:103C60008E931297E0E0F0E08A819B81009719F033
:103C7000FE01EC01F9CFCE01029628813981820F35
:103C8000931F2091F1043091F2042817390769F449
:103C9000309729F41092F4041092F30402C01382B6
:103CA0001282D093F204C093F104DF91CF91089572
:103CB000A0E0B0E0EEE5FEE10C94501FEC01CB017A
:103CC000209719F40E94311DB8C0FE01E60FF71FBE
:103CD0009E0122503109E217F30708F4ACC0D90164
:103CE0000D911C91119706171707B8F005301105B3
:103CF00008F49FC0A801445051094617570708F41B
:103D000098C002501109061B170B019311936D9374
:103D10007C93CF010E94C91D8CC05B01A01AB10A1F
:103D20004E01800E911EA091F304B091F404612C19
:103D3000712C60E070E0109709F449C0A815B9052E
:103D4000C9F5ED90FC901197670142E0C40ED11CBB
:103D5000CA14DB0478F147018A189B08640142E029
:103D6000C40ED11C1296BC9012971396AC91B5E07C
:103D7000CB16D10440F0B282A38391828082D90114
:103D80008D939C9309C00E5F1F4F0E0D1F1DF901EF
:103D900011830083EB2DFA2F6115710531F0DB01E2
:103DA0001396FC93EE93129744C0F093F404E093BF
:103DB000F3043FC06D917C9111976616770608F465
:103DC0003B01BD0112960D90BC91A02DB4CF609126
:103DD000F1047091F20468157905E9F46816790622
:103DE000D0F440910001509101014115510541F479
:103DF0004DB75EB76091040170910501461B570BEA
:103E0000E417F507C0F4F093F204E093F104F9012C
:103E1000918380830EC00E94311D7C01009759F070
:103E2000A801BE010E94221FCE010E94C91DC70128
:103E300004C0CE0102C080E090E0CDB7DEB7EEE076
:103E40000C946C1FFB01DC0102C001900D924150EB
:103E50005040D8F70895FB01DC0101900D9200203D
:103E6000E1F70895FB0151915523A9F0BF01DC0151
:103E70004D9145174111E1F759F4CD010190002012
:103E800049F04D9140154111C9F3FB014111EFCFAC
:103E900081E090E0019708952F923F924F925F92B8
:103EA0006F927F928F929F92AF92BF92CF92DF924A
:103EB000EF92FF920F931F93CF93DF93CDB7DEB7AF
:103EC000CA1BDB0B0FB6F894DEBF0FBECDBF099443
:103ED0002A88398848885F846E847D848C849B849A
:103EE000AA84B984C884DF80EE80FD800C811B81A8
:103EF000AA81B981CE0FD11D0FB6F894DEBF0FBED7
:103F0000CDBFED01089510E0CAECD0E004C0FE0181
:103F10000E942D1D2296CC3CD107C9F7F894FFCF03
:103F20000000F504800001000000FFFFFF00C0A8B2
:103F30000F0100AABBCCDE0200C00101005E000040
:103F4000004C4544323D32003C696E7075742074FB
:103F50007970653D22636865636B626F7822206EBD
:103F6000616D653D224C454432222076616C756559
:103F70003D2232222020202020202020206F6E632E
:103F80006C69636B3D227375626D697428293B22ED
:103F9000636865636B65643E4C454432003C696E02
:103FA00070757420747970653D22636865636B6217
:103FB0006F7822206E616D653D224C45443222208F
:103FC00076616C75653D2232222020202020202041
:103FD00020206F6E636C69636B3D227375626D693F
:103FE0007428293B223E4C454432005468652072B7
:103FF0006F6F6D2074656D70657261747572652088
:104000006465677265652069733A002043006661E4
:104010007669636F6E2E69636F00485454502F3178
:104020002E3120323030204F4B00436F6E74656E5E
:10403000742D547970653A20746578742F68746DA6
:104040006C00436F6E6E656374696F6E3A20636CCB
:104050006F7365003C21444F4354595045206874A8
:104060006D6C3E003C68746D6C3E003C686561643C
:104070003E003C7469746C653E41726475696E6F94
:10408000204C454420436F6E74726F6C20616E64E7
:104090002054656D70204D6F6E69746F72696E6724
:1040A0003C2F7469746C653E003C2F686561643E0A
:1040B000003C626F64793E003C68313E4C454420D0
:1040C000636F6E74726F6C3C2F68313E003C703EC3
:1040D000436C69636B20746F207377697463682025
:1040E0004C4544206F6E20616E64206F66662E3CE6
:1040F0002F703E003C666F726D206D6574686F6452
:104100003D22676574223E003C6272202F3E003CD7
:1041100068313E54656D6570726174757265206DAD
:104120006F6E69746F72696E673C2F68313E005420
:1041300068652074656D706572617475726520695B
:104140007320003C2F68746D6C3E005468652072CB
:104150006F7720646174612066726F6D204C4D33FF
:1041600035445A20697320003C2F666F726D3E0003
:104170003C2F626F64793E007365727665722069C8
:10418000732061742000000000001A0743075D07D8
:1041900066078407A7072308AB0780078008BA08CB
:1041A00030070B070E073807100700000000E9086A
:1041B000AF09FF08000000009E0AD60A9A0AEA0A20
:1041C000300BB40A490BB50ACA0A760CD20A760B30
:1041D000130B7F0A860A960ACC0B00000000C91553
:1041E000BF174B1564155615A715000000003517AD
:1041F0000D0A006E616E00696E66006F7666002EB5
:024200000000BC
:00000001FF
